{
	"data": {
		"bytecode": {
			"linkReferences": {},
			"object": "608060405260006006553480156200001657600080fd5b506040518060400160405280600e81526020017f42657474696e67205469636b65740000000000000000000000000000000000008152506040518060400160405280600381526020017f424554000000000000000000000000000000000000000000000000000000000081525081600090805190602001906200009b929190620000bd565b508060019080519060200190620000b4929190620000bd565b505050620001d2565b828054620000cb906200016d565b90600052602060002090601f016020900481019282620000ef57600085556200013b565b82601f106200010a57805160ff19168380011785556200013b565b828001600101855582156200013b579182015b828111156200013a5782518255916020019190600101906200011d565b5b5090506200014a91906200014e565b5090565b5b80821115620001695760008160009055506001016200014f565b5090565b600060028204905060018216806200018657607f821691505b602082108114156200019d576200019c620001a3565b5b50919050565b7f4e487b7100000000000000000000000000000000000000000000000000000000600052602260045260246000fd5b61405d80620001e26000396000f3fe6080604052600436106101355760003560e01c80636352211e116100ab57806395d89b411161006f57806395d89b4114610454578063a22cb4651461047f578063b88d4fde146104a8578063c87b56dd146104d1578063e985e9c51461050e578063f3118d8e1461054b57610135565b80636352211e1461033557806370a0823114610372578063726e0320146103af5780637bab25d1146103d8578063810073911461041757610135565b8063154048ab116100fd578063154048ab1461024a57806316fd381a1461026657806323b872dd1461028f5780632451d316146102b857806334913f28146102e157806342842e0e1461030c57610135565b806301ffc9a71461013a57806306fdde0314610177578063081812fc146101a2578063095ea7b3146101df5780630c0dee7014610208575b600080fd5b34801561014657600080fd5b50610161600480360381019061015c91906129cc565b610567565b60405161016e919061303f565b60405180910390f35b34801561018357600080fd5b5061018c610649565b6040516101999190613091565b60405180910390f35b3480156101ae57600080fd5b506101c960048036038101906101c49190612a26565b6106db565b6040516101d69190612f4e565b60405180910390f35b3480156101eb57600080fd5b5061020660048036038101906102019190612879565b610760565b005b34801561021457600080fd5b5061022f600480360381019061022a919061290c565b610878565b60405161024196959493929190612fde565b60405180910390f35b610264600480360381019061025f919061290c565b6108e1565b005b34801561027257600080fd5b5061028d60048036038101906102889190612a26565b610a88565b005b34801561029b57600080fd5b506102b660048036038101906102b19190612763565b610bf9565b005b3480156102c457600080fd5b506102df60048036038101906102da91906128b9565b610c59565b005b3480156102ed57600080fd5b506102f6610fc1565b60405161030391906133d3565b60405180910390f35b34801561031857600080fd5b50610333600480360381019061032e9190612763565b610fc7565b005b34801561034157600080fd5b5061035c60048036038101906103579190612a26565b610fe7565b6040516103699190612f4e565b60405180910390f35b34801561037e57600080fd5b50610399600480360381019061039491906126f6565b611099565b6040516103a691906133d3565b60405180910390f35b3480156103bb57600080fd5b506103d660048036038101906103d19190612939565b611151565b005b3480156103e457600080fd5b506103ff60048036038101906103fa9190612a26565b611371565b60405161040e9392919061305a565b60405180910390f35b34801561042357600080fd5b5061043e60048036038101906104399190612979565b61139b565b60405161044b91906133d3565b60405180910390f35b34801561046057600080fd5b506104696114cc565b6040516104769190613091565b60405180910390f35b34801561048b57600080fd5b506104a660048036038101906104a19190612839565b61155e565b005b3480156104b457600080fd5b506104cf60048036038101906104ca91906127b6565b6116df565b005b3480156104dd57600080fd5b506104f860048036038101906104f39190612a26565b611741565b6040516105059190613091565b60405180910390f35b34801561051a57600080fd5b5061053560048036038101906105309190612723565b6117e8565b604051610542919061303f565b60405180910390f35b61056560048036038101906105609190612939565b61187c565b005b60007f80ac58cd000000000000000000000000000000000000000000000000000000007bffffffffffffffffffffffffffffffffffffffffffffffffffffffff1916827bffffffffffffffffffffffffffffffffffffffffffffffffffffffff1916148061063257507f5b5e139f000000000000000000000000000000000000000000000000000000007bffffffffffffffffffffffffffffffffffffffffffffffffffffffff1916827bffffffffffffffffffffffffffffffffffffffffffffffffffffffff1916145b8061064257506106418261188c565b5b9050919050565b60606000805461065890613693565b80601f016020809104026020016040519081016040528092919081815260200182805461068490613693565b80156106d15780601f106106a6576101008083540402835291602001916106d1565b820191906000526020600020905b8154815290600101906020018083116106b457829003601f168201915b5050505050905090565b60006106e6826118f6565b610725576040517f08c379a000000000000000000000000000000000000000000000000000000000815260040161071c90613293565b60405180910390fd5b6004600083815260200190815260200160002060009054906101000a900473ffffffffffffffffffffffffffffffffffffffff169050919050565b600061076b82610fe7565b90508073ffffffffffffffffffffffffffffffffffffffff168373ffffffffffffffffffffffffffffffffffffffff1614156107dc576040517f08c379a00000000000000000000000000000000000000000000000000000000081526004016107d390613333565b60405180910390fd5b8073ffffffffffffffffffffffffffffffffffffffff166107fb611962565b73ffffffffffffffffffffffffffffffffffffffff16148061082a575061082981610824611962565b6117e8565b5b610869576040517f08c379a000000000000000000000000000000000000000000000000000000000815260040161086090613213565b60405180910390fd5b610873838361196a565b505050565b60086020528060005260406000206000915090508060000160009054906101000a900473ffffffffffffffffffffffffffffffffffffffff16908060010154908060040154908060050154908060060160009054906101000a900460ff16908060070154905086565b6008600082815260200190815260200160002060000160009054906101000a900473ffffffffffffffffffffffffffffffffffffffff1673ffffffffffffffffffffffffffffffffffffffff163373ffffffffffffffffffffffffffffffffffffffff1614610985576040517f08c379a000000000000000000000000000000000000000000000000000000000815260040161097c90613313565b60405180910390fd5b6000806008600084815260200190815260200160002060040154346109aa9190613514565b9050600181116109ef576040517f08c379a00000000000000000000000000000000000000000000000000000000081526004016109e690613393565b60405180910390fd5b60005b60016008600086815260200190815260200160002060040154610a15919061359f565b811015610a49578183610a2891906134be565b9250610a3633858385611a23565b8080610a41906136f6565b9150506109f2565b50610a83338460016008600088815260200190815260200160002060040154610a72919061359f565b8534610a7e919061359f565b611a23565b505050565b600860006007600084815260200190815260200160002060000154815260200190815260200160002060060160009054906101000a900460ff16610b01576040517f08c379a0000000000000000000000000000000000000000000000000000000008152600401610af8906130b3565b60405180910390fd5b600760008281526020019081526020016000206001015460086000600760008581526020019081526020016000206000015481526020019081526020016000206007015414610b85576040517f08c379a0000000000000000000000000000000000000000000000000000000008152600401610b7c906131b3565b60405180910390fd5b610b90333083610bf9565b610b9981611c02565b3373ffffffffffffffffffffffffffffffffffffffff166108fc60076000848152602001908152602001600020600201549081150290604051600060405180830381858888f19350505050158015610bf5573d6000803e3d6000fd5b5050565b610c0a610c04611962565b82611d13565b610c49576040517f08c379a0000000000000000000000000000000000000000000000000000000008152600401610c4090613373565b60405180910390fd5b610c54838383611df1565b505050565b6127108110610c9d576040517f08c379a0000000000000000000000000000000000000000000000000000000008152600401610c94906131f3565b60405180910390fd5b60018211610ce0576040517f08c379a0000000000000000000000000000000000000000000000000000000008152600401610cd790613353565b60405180910390fd5b60006040518061010001604052808573ffffffffffffffffffffffffffffffffffffffff1681526020018381526020018467ffffffffffffffff811115610d2a57610d2961385a565b5b604051908082528060200260200182016040528015610d585781602001602082028036833780820191505090505b5081526020018467ffffffffffffffff811115610d7857610d7761385a565b5b604051908082528060200260200182016040528015610da65781602001602082028036833780820191505090505b508152602001848152602001600081526020016000151581526020016000815250905060008483853342604051602001610de4959493929190612ecb565b604051602081830303815290604052805190602001209050600073ffffffffffffffffffffffffffffffffffffffff166008600083815260200190815260200160002060000160009054906101000a900473ffffffffffffffffffffffffffffffffffffffff1673ffffffffffffffffffffffffffffffffffffffff1614610ea1576040517f08c379a0000000000000000000000000000000000000000000000000000000008152600401610e9890613133565b60405180910390fd5b816008600083815260200190815260200160002060008201518160000160006101000a81548173ffffffffffffffffffffffffffffffffffffffff021916908373ffffffffffffffffffffffffffffffffffffffff160217905550602082015181600101556040820151816002019080519060200190610f2292919061259e565b506060820151816003019080519060200190610f3f92919061259e565b506080820151816004015560a0820151816005015560c08201518160060160006101000a81548160ff02191690831515021790555060e082015181600701559050507fbc339e5933ac6a883787f7b4e2f57ebc7cdbbb4f6a23a30cd8c7b18c8acb593b8582604051610fb2929190612fb5565b60405180910390a15050505050565b61271081565b610fe2838383604051806020016040528060008152506116df565b505050565b6000806002600084815260200190815260200160002060009054906101000a900473ffffffffffffffffffffffffffffffffffffffff169050600073ffffffffffffffffffffffffffffffffffffffff168173ffffffffffffffffffffffffffffffffffffffff161415611090576040517f08c379a000000000000000000000000000000000000000000000000000000000815260040161108790613253565b60405180910390fd5b80915050919050565b60008073ffffffffffffffffffffffffffffffffffffffff168273ffffffffffffffffffffffffffffffffffffffff16141561110a576040517f08c379a000000000000000000000000000000000000000000000000000000000815260040161110190613233565b60405180910390fd5b600360008373ffffffffffffffffffffffffffffffffffffffff1673ffffffffffffffffffffffffffffffffffffffff168152602001908152602001600020549050919050565b600860008381526020019081526020016000206004015481106111a9576040517f08c379a00000000000000000000000000000000000000000000000000000000081526004016111a0906130f3565b60405180910390fd5b6008600083815260200190815260200160002060000160009054906101000a900473ffffffffffffffffffffffffffffffffffffffff1673ffffffffffffffffffffffffffffffffffffffff163373ffffffffffffffffffffffffffffffffffffffff161461124d576040517f08c379a0000000000000000000000000000000000000000000000000000000008152600401611244906132b3565b60405180910390fd5b80600860008481526020019081526020016000206007018190555060016008600084815260200190815260200160002060060160006101000a81548160ff02191690831515021790555060006008600084815260200190815260200160002060030182815481106112c1576112c061382b565b5b906000526020600020015460086000858152602001908152602001600020600501546112ed919061359f565b90506008600084815260200190815260200160002060000160009054906101000a900473ffffffffffffffffffffffffffffffffffffffff1673ffffffffffffffffffffffffffffffffffffffff166108fc829081150290604051600060405180830381858888f1935050505015801561136b573d6000803e3d6000fd5b50505050565b60076020528060005260406000206000915090508060000154908060010154908060020154905083565b6000826008600086815260200190815260200160002060040154116113f5576040517f08c379a00000000000000000000000000000000000000000000000000000000081526004016113ec90613193565b60405180910390fd5b600060086000868152602001908152602001600020905060008160050154141561142257829150506114c5565b6127108082600201868154811061143c5761143b61382b565b5b90600052602060002001548561145291906134be565b61271086856005015461146591906134be565b6127106114729190613545565b61147c9190613514565b6114869190613545565b8360010154612710611498919061359f565b866114a39190613545565b6114ad9190613545565b6114b79190613514565b6114c19190613514565b9150505b9392505050565b6060600180546114db90613693565b80601f016020809104026020016040519081016040528092919081815260200182805461150790613693565b80156115545780601f1061152957610100808354040283529160200191611554565b820191906000526020600020905b81548152906001019060200180831161153757829003601f168201915b5050505050905090565b611566611962565b73ffffffffffffffffffffffffffffffffffffffff168273ffffffffffffffffffffffffffffffffffffffff1614156115d4576040517f08c379a00000000000000000000000000000000000000000000000000000000081526004016115cb90613173565b60405180910390fd5b80600560006115e1611962565b73ffffffffffffffffffffffffffffffffffffffff1673ffffffffffffffffffffffffffffffffffffffff16815260200190815260200160002060008473ffffffffffffffffffffffffffffffffffffffff1673ffffffffffffffffffffffffffffffffffffffff16815260200190815260200160002060006101000a81548160ff0219169083151502179055508173ffffffffffffffffffffffffffffffffffffffff1661168e611962565b73ffffffffffffffffffffffffffffffffffffffff167f17307eab39ab6107e8899845ad3d59bd9653f200f220920489ca2b5937696c31836040516116d3919061303f565b60405180910390a35050565b6116f06116ea611962565b83611d13565b61172f576040517f08c379a000000000000000000000000000000000000000000000000000000000815260040161172690613373565b60405180910390fd5b61173b8484848461204d565b50505050565b606061174c826118f6565b61178b576040517f08c379a0000000000000000000000000000000000000000000000000000000008152600401611782906132f3565b60405180910390fd5b60006117956120a9565b905060008151116117b557604051806020016040528060008152506117e0565b806117bf846120c0565b6040516020016117d0929190612f2a565b6040516020818303038152906040525b915050919050565b6000600560008473ffffffffffffffffffffffffffffffffffffffff1673ffffffffffffffffffffffffffffffffffffffff16815260200190815260200160002060008373ffffffffffffffffffffffffffffffffffffffff1673ffffffffffffffffffffffffffffffffffffffff16815260200190815260200160002060009054906101000a900460ff16905092915050565b61188833838334611a23565b5050565b60007f01ffc9a7000000000000000000000000000000000000000000000000000000007bffffffffffffffffffffffffffffffffffffffffffffffffffffffff1916827bffffffffffffffffffffffffffffffffffffffffffffffffffffffff1916149050919050565b60008073ffffffffffffffffffffffffffffffffffffffff166002600084815260200190815260200160002060009054906101000a900473ffffffffffffffffffffffffffffffffffffffff1673ffffffffffffffffffffffffffffffffffffffff1614159050919050565b600033905090565b816004600083815260200190815260200160002060006101000a81548173ffffffffffffffffffffffffffffffffffffffff021916908373ffffffffffffffffffffffffffffffffffffffff160217905550808273ffffffffffffffffffffffffffffffffffffffff166119dd83610fe7565b73ffffffffffffffffffffffffffffffffffffffff167f8c5be1e5ebec7d5bd14f71427d1e84f3dd0314c0f7b2291e5b200ac8c7c3b92560405160405180910390a45050565b81600860008581526020019081526020016000206004015411611a7b576040517f08c379a0000000000000000000000000000000000000000000000000000000008152600401611a72906133b3565b60405180910390fd5b611a8784600654612221565b6000611a9484848461139b565b905060405180606001604052808581526020018481526020018281525060076000600654815260200190815260200160002060008201518160000155602082015181600101556040820151816002015590505081600860008681526020019081526020016000206005016000828254611b0d91906134be565b9250508190555081600860008681526020019081526020016000206002018481548110611b3d57611b3c61382b565b5b906000526020600020016000828254611b5691906134be565b9250508190555080600860008681526020019081526020016000206003018481548110611b8657611b8561382b565b5b906000526020600020016000828254611b9f91906134be565b925050819055507f8fc9c4f9d6b36166b3dc0bcc4428f588ac64079e040b0623594709ccaceeac046006548686604051611bdb939291906133ee565b60405180910390a160066000815480929190611bf6906136f6565b91905055505050505050565b6000611c0d82610fe7565b9050611c1b816000846123ef565b611c2660008361196a565b6001600360008373ffffffffffffffffffffffffffffffffffffffff1673ffffffffffffffffffffffffffffffffffffffff1681526020019081526020016000206000828254611c76919061359f565b925050819055506002600083815260200190815260200160002060006101000a81549073ffffffffffffffffffffffffffffffffffffffff021916905581600073ffffffffffffffffffffffffffffffffffffffff168273ffffffffffffffffffffffffffffffffffffffff167fddf252ad1be2c89b69c2b068fc378daa952ba7f163c4a11628f55a4df523b3ef60405160405180910390a45050565b6000611d1e826118f6565b611d5d576040517f08c379a0000000000000000000000000000000000000000000000000000000008152600401611d54906131d3565b60405180910390fd5b6000611d6883610fe7565b90508073ffffffffffffffffffffffffffffffffffffffff168473ffffffffffffffffffffffffffffffffffffffff161480611dd757508373ffffffffffffffffffffffffffffffffffffffff16611dbf846106db565b73ffffffffffffffffffffffffffffffffffffffff16145b80611de85750611de781856117e8565b5b91505092915050565b8273ffffffffffffffffffffffffffffffffffffffff16611e1182610fe7565b73ffffffffffffffffffffffffffffffffffffffff1614611e67576040517f08c379a0000000000000000000000000000000000000000000000000000000008152600401611e5e906132d3565b60405180910390fd5b600073ffffffffffffffffffffffffffffffffffffffff168273ffffffffffffffffffffffffffffffffffffffff161415611ed7576040517f08c379a0000000000000000000000000000000000000000000000000000000008152600401611ece90613153565b60405180910390fd5b611ee28383836123ef565b611eed60008261196a565b6001600360008573ffffffffffffffffffffffffffffffffffffffff1673ffffffffffffffffffffffffffffffffffffffff1681526020019081526020016000206000828254611f3d919061359f565b925050819055506001600360008473ffffffffffffffffffffffffffffffffffffffff1673ffffffffffffffffffffffffffffffffffffffff1681526020019081526020016000206000828254611f9491906134be565b92505081905550816002600083815260200190815260200160002060006101000a81548173ffffffffffffffffffffffffffffffffffffffff021916908373ffffffffffffffffffffffffffffffffffffffff160217905550808273ffffffffffffffffffffffffffffffffffffffff168473ffffffffffffffffffffffffffffffffffffffff167fddf252ad1be2c89b69c2b068fc378daa952ba7f163c4a11628f55a4df523b3ef60405160405180910390a4505050565b612058848484611df1565b612064848484846123f4565b6120a3576040517f08c379a000000000000000000000000000000000000000000000000000000000815260040161209a906130d3565b60405180910390fd5b50505050565b606060405180602001604052806000815250905090565b60606000821415612108576040518060400160405280600181526020017f3000000000000000000000000000000000000000000000000000000000000000815250905061221c565b600082905060005b6000821461213a578080612123906136f6565b915050600a826121339190613514565b9150612110565b60008167ffffffffffffffff8111156121565761215561385a565b5b6040519080825280601f01601f1916602001820160405280156121885781602001600182028036833780820191505090505b5090505b60008514612215576001826121a1919061359f565b9150600a856121b0919061376d565b60306121bc91906134be565b60f81b8183815181106121d2576121d161382b565b5b60200101907effffffffffffffffffffffffffffffffffffffffffffffffffffffffffffff1916908160001a905350600a8561220e9190613514565b945061218c565b8093505050505b919050565b600073ffffffffffffffffffffffffffffffffffffffff168273ffffffffffffffffffffffffffffffffffffffff161415612291576040517f08c379a000000000000000000000000000000000000000000000000000000000815260040161228890613273565b60405180910390fd5b61229a816118f6565b156122da576040517f08c379a00000000000000000000000000000000000000000000000000000000081526004016122d190613113565b60405180910390fd5b6122e6600083836123ef565b6001600360008473ffffffffffffffffffffffffffffffffffffffff1673ffffffffffffffffffffffffffffffffffffffff168152602001908152602001600020600082825461233691906134be565b92505081905550816002600083815260200190815260200160002060006101000a81548173ffffffffffffffffffffffffffffffffffffffff021916908373ffffffffffffffffffffffffffffffffffffffff160217905550808273ffffffffffffffffffffffffffffffffffffffff16600073ffffffffffffffffffffffffffffffffffffffff167fddf252ad1be2c89b69c2b068fc378daa952ba7f163c4a11628f55a4df523b3ef60405160405180910390a45050565b505050565b60006124158473ffffffffffffffffffffffffffffffffffffffff1661258b565b1561257e578373ffffffffffffffffffffffffffffffffffffffff1663150b7a0261243e611962565b8786866040518563ffffffff1660e01b81526004016124609493929190612f69565b602060405180830381600087803b15801561247a57600080fd5b505af19250505080156124ab57506040513d601f19601f820116820180604052508101906124a891906129f9565b60015b61252e573d80600081146124db576040519150601f19603f3d011682016040523d82523d6000602084013e6124e0565b606091505b50600081511415612526576040517f08c379a000000000000000000000000000000000000000000000000000000000815260040161251d906130d3565b60405180910390fd5b805181602001fd5b63150b7a0260e01b7bffffffffffffffffffffffffffffffffffffffffffffffffffffffff1916817bffffffffffffffffffffffffffffffffffffffffffffffffffffffff191614915050612583565b600190505b949350505050565b600080823b905060008111915050919050565b8280548282559060005260206000209081019282156125da579160200282015b828111156125d95782518255916020019190600101906125be565b5b5090506125e791906125eb565b5090565b5b808211156126045760008160009055506001016125ec565b5090565b600061261b6126168461344a565b613425565b9050828152602081018484840111156126375761263661388e565b5b612642848285613651565b509392505050565b60008135905061265981613fb4565b92915050565b60008135905061266e81613fcb565b92915050565b60008135905061268381613fe2565b92915050565b60008135905061269881613ff9565b92915050565b6000815190506126ad81613ff9565b92915050565b600082601f8301126126c8576126c7613889565b5b81356126d8848260208601612608565b91505092915050565b6000813590506126f081614010565b92915050565b60006020828403121561270c5761270b613898565b5b600061271a8482850161264a565b91505092915050565b6000806040838503121561273a57612739613898565b5b60006127488582860161264a565b92505060206127598582860161264a565b9150509250929050565b60008060006060848603121561277c5761277b613898565b5b600061278a8682870161264a565b935050602061279b8682870161264a565b92505060406127ac868287016126e1565b9150509250925092565b600080600080608085870312156127d0576127cf613898565b5b60006127de8782880161264a565b94505060206127ef8782880161264a565b9350506040612800878288016126e1565b925050606085013567ffffffffffffffff81111561282157612820613893565b5b61282d878288016126b3565b91505092959194509250565b600080604083850312156128505761284f613898565b5b600061285e8582860161264a565b925050602061286f8582860161265f565b9150509250929050565b600080604083850312156128905761288f613898565b5b600061289e8582860161264a565b92505060206128af858286016126e1565b9150509250929050565b6000806000606084860312156128d2576128d1613898565b5b60006128e08682870161264a565b93505060206128f1868287016126e1565b9250506040612902868287016126e1565b9150509250925092565b60006020828403121561292257612921613898565b5b600061293084828501612674565b91505092915050565b600080604083850312156129505761294f613898565b5b600061295e85828601612674565b925050602061296f858286016126e1565b9150509250929050565b60008060006060848603121561299257612991613898565b5b60006129a086828701612674565b93505060206129b1868287016126e1565b92505060406129c2868287016126e1565b9150509250925092565b6000602082840312156129e2576129e1613898565b5b60006129f084828501612689565b91505092915050565b600060208284031215612a0f57612a0e613898565b5b6000612a1d8482850161269e565b91505092915050565b600060208284031215612a3c57612a3b613898565b5b6000612a4a848285016126e1565b91505092915050565b612a5c816135d3565b82525050565b612a73612a6e826135d3565b61373f565b82525050565b612a82816135e5565b82525050565b612a91816135f1565b82525050565b6000612aa28261347b565b612aac8185613491565b9350612abc818560208601613660565b612ac58161389d565b840191505092915050565b6000612adb82613486565b612ae581856134a2565b9350612af5818560208601613660565b612afe8161389d565b840191505092915050565b6000612b1482613486565b612b1e81856134b3565b9350612b2e818560208601613660565b80840191505092915050565b6000612b476014836134a2565b9150612b52826138bb565b602082019050919050565b6000612b6a6032836134a2565b9150612b75826138e4565b604082019050919050565b6000612b8d601d836134a2565b9150612b9882613933565b602082019050919050565b6000612bb0601c836134a2565b9150612bbb8261395c565b602082019050919050565b6000612bd36074836134a2565b9150612bde82613985565b608082019050919050565b6000612bf66024836134a2565b9150612c0182613a20565b604082019050919050565b6000612c196019836134a2565b9150612c2482613a6f565b602082019050919050565b6000612c3c6025836134a2565b9150612c4782613a98565b604082019050919050565b6000612c5f601b836134a2565b9150612c6a82613ae7565b602082019050919050565b6000612c82602c836134a2565b9150612c8d82613b10565b604082019050919050565b6000612ca56027836134a2565b9150612cb082613b5f565b604082019050919050565b6000612cc86038836134a2565b9150612cd382613bae565b604082019050919050565b6000612ceb602a836134a2565b9150612cf682613bfd565b604082019050919050565b6000612d0e6029836134a2565b9150612d1982613c4c565b604082019050919050565b6000612d316020836134a2565b9150612d3c82613c9b565b602082019050919050565b6000612d54602c836134a2565b9150612d5f82613cc4565b604082019050919050565b6000612d776022836134a2565b9150612d8282613d13565b604082019050919050565b6000612d9a6029836134a2565b9150612da582613d62565b604082019050919050565b6000612dbd602f836134a2565b9150612dc882613db1565b604082019050919050565b6000612de0602d836134a2565b9150612deb82613e00565b604082019050919050565b6000612e036021836134a2565b9150612e0e82613e4f565b604082019050919050565b6000612e266026836134a2565b9150612e3182613e9e565b604082019050919050565b6000612e496031836134a2565b9150612e5482613eed565b604082019050919050565b6000612e6c6028836134a2565b9150612e7782613f3c565b604082019050919050565b6000612e8f601a836134a2565b9150612e9a82613f8b565b602082019050919050565b612eae81613647565b82525050565b612ec5612ec082613647565b613763565b82525050565b6000612ed78288612a62565b601482019150612ee78287612eb4565b602082019150612ef78286612eb4565b602082019150612f078285612a62565b601482019150612f178284612eb4565b6020820191508190509695505050505050565b6000612f368285612b09565b9150612f428284612b09565b91508190509392505050565b6000602082019050612f636000830184612a53565b92915050565b6000608082019050612f7e6000830187612a53565b612f8b6020830186612a53565b612f986040830185612ea5565b8181036060830152612faa8184612a97565b905095945050505050565b6000604082019050612fca6000830185612a53565b612fd76020830184612a88565b9392505050565b600060c082019050612ff36000830189612a53565b6130006020830188612ea5565b61300d6040830187612ea5565b61301a6060830186612ea5565b6130276080830185612a79565b61303460a0830184612ea5565b979650505050505050565b60006020820190506130546000830184612a79565b92915050565b600060608201905061306f6000830186612a88565b61307c6020830185612ea5565b6130896040830184612ea5565b949350505050565b600060208201905081810360008301526130ab8184612ad0565b905092915050565b600060208201905081810360008301526130cc81612b3a565b9050919050565b600060208201905081810360008301526130ec81612b5d565b9050919050565b6000602082019050818103600083015261310c81612b80565b9050919050565b6000602082019050818103600083015261312c81612ba3565b9050919050565b6000602082019050818103600083015261314c81612bc6565b9050919050565b6000602082019050818103600083015261316c81612be9565b9050919050565b6000602082019050818103600083015261318c81612c0c565b9050919050565b600060208201905081810360008301526131ac81612c2f565b9050919050565b600060208201905081810360008301526131cc81612c52565b9050919050565b600060208201905081810360008301526131ec81612c75565b9050919050565b6000602082019050818103600083015261320c81612c98565b9050919050565b6000602082019050818103600083015261322c81612cbb565b9050919050565b6000602082019050818103600083015261324c81612cde565b9050919050565b6000602082019050818103600083015261326c81612d01565b9050919050565b6000602082019050818103600083015261328c81612d24565b9050919050565b600060208201905081810360008301526132ac81612d47565b9050919050565b600060208201905081810360008301526132cc81612d6a565b9050919050565b600060208201905081810360008301526132ec81612d8d565b9050919050565b6000602082019050818103600083015261330c81612db0565b9050919050565b6000602082019050818103600083015261332c81612dd3565b9050919050565b6000602082019050818103600083015261334c81612df6565b9050919050565b6000602082019050818103600083015261336c81612e19565b9050919050565b6000602082019050818103600083015261338c81612e3c565b9050919050565b600060208201905081810360008301526133ac81612e5f565b9050919050565b600060208201905081810360008301526133cc81612e82565b9050919050565b60006020820190506133e86000830184612ea5565b92915050565b60006060820190506134036000830186612ea5565b6134106020830185612a53565b61341d6040830184612a88565b949350505050565b600061342f613440565b905061343b82826136c5565b919050565b6000604051905090565b600067ffffffffffffffff8211156134655761346461385a565b5b61346e8261389d565b9050602081019050919050565b600081519050919050565b600081519050919050565b600082825260208201905092915050565b600082825260208201905092915050565b600081905092915050565b60006134c982613647565b91506134d483613647565b9250827fffffffffffffffffffffffffffffffffffffffffffffffffffffffffffffffff038211156135095761350861379e565b5b828201905092915050565b600061351f82613647565b915061352a83613647565b92508261353a576135396137cd565b5b828204905092915050565b600061355082613647565b915061355b83613647565b9250817fffffffffffffffffffffffffffffffffffffffffffffffffffffffffffffffff04831182151516156135945761359361379e565b5b828202905092915050565b60006135aa82613647565b91506135b583613647565b9250828210156135c8576135c761379e565b5b828203905092915050565b60006135de82613627565b9050919050565b60008115159050919050565b6000819050919050565b60007fffffffff0000000000000000000000000000000000000000000000000000000082169050919050565b600073ffffffffffffffffffffffffffffffffffffffff82169050919050565b6000819050919050565b82818337600083830152505050565b60005b8381101561367e578082015181840152602081019050613663565b8381111561368d576000848401525b50505050565b600060028204905060018216806136ab57607f821691505b602082108114156136bf576136be6137fc565b5b50919050565b6136ce8261389d565b810181811067ffffffffffffffff821117156136ed576136ec61385a565b5b80604052505050565b600061370182613647565b91507fffffffffffffffffffffffffffffffffffffffffffffffffffffffffffffffff8214156137345761373361379e565b5b600182019050919050565b600061374a82613751565b9050919050565b600061375c826138ae565b9050919050565b6000819050919050565b600061377882613647565b915061378383613647565b925082613793576137926137cd565b5b828206905092915050565b7f4e487b7100000000000000000000000000000000000000000000000000000000600052601160045260246000fd5b7f4e487b7100000000000000000000000000000000000000000000000000000000600052601260045260246000fd5b7f4e487b7100000000000000000000000000000000000000000000000000000000600052602260045260246000fd5b7f4e487b7100000000000000000000000000000000000000000000000000000000600052603260045260246000fd5b7f4e487b7100000000000000000000000000000000000000000000000000000000600052604160045260246000fd5b600080fd5b600080fd5b600080fd5b600080fd5b6000601f19601f8301169050919050565b60008160601b9050919050565b7f426574206d75737420626520636f6d706c657465000000000000000000000000600082015250565b7f4552433732313a207472616e7366657220746f206e6f6e20455243373231526560008201527f63656976657220696d706c656d656e7465720000000000000000000000000000602082015250565b7f57696e6e6572206d7573742062652077697468696e206f7074696f6e73000000600082015250565b7f4552433732313a20746f6b656e20616c7265616479206d696e74656400000000600082015250565b7f626f6f6b20616c7265616479206578697374732061742074686973206b65792c60008201527f20796f75277265206c696b656c7920747279696e6720746f206372656174652060208201527f6d756c7469706c65206f66207468652073616d6520626f6f6b7320696e206f6e60408201527f652074782e20446f6e277420646f20746869732e000000000000000000000000606082015250565b7f4552433732313a207472616e7366657220746f20746865207a65726f2061646460008201527f7265737300000000000000000000000000000000000000000000000000000000602082015250565b7f4552433732313a20617070726f766520746f2063616c6c657200000000000000600082015250565b7f6f7074696f6e206d7573742062652077697468696e206f7074696f6e7320696e60008201527f20626f6f6b000000000000000000000000000000000000000000000000000000602082015250565b7f4d757374206861766520626574206f6e207468652077696e6e65720000000000600082015250565b7f4552433732313a206f70657261746f7220717565727920666f72206e6f6e657860008201527f697374656e7420746f6b656e0000000000000000000000000000000000000000602082015250565b7f526564756374696f6e20726174652063616e6e6f74206265206d6f726520746860008201527f616e203130302500000000000000000000000000000000000000000000000000602082015250565b7f4552433732313a20617070726f76652063616c6c6572206973206e6f74206f7760008201527f6e6572206e6f7220617070726f76656420666f7220616c6c0000000000000000602082015250565b7f4552433732313a2062616c616e636520717565727920666f7220746865207a6560008201527f726f206164647265737300000000000000000000000000000000000000000000602082015250565b7f4552433732313a206f776e657220717565727920666f72206e6f6e657869737460008201527f656e7420746f6b656e0000000000000000000000000000000000000000000000602082015250565b7f4552433732313a206d696e7420746f20746865207a65726f2061646472657373600082015250565b7f4552433732313a20617070726f76656420717565727920666f72206e6f6e657860008201527f697374656e7420746f6b656e0000000000000000000000000000000000000000602082015250565b7f4f6e6c792074686520626f6f6b69652063616e20736574746c6520746865206260008201527f6574000000000000000000000000000000000000000000000000000000000000602082015250565b7f4552433732313a207472616e73666572206f6620746f6b656e2074686174206960008201527f73206e6f74206f776e0000000000000000000000000000000000000000000000602082015250565b7f4552433732314d657461646174613a2055524920717565727920666f72206e6f60008201527f6e6578697374656e7420746f6b656e0000000000000000000000000000000000602082015250565b7f4f6e6c792074686520626f6f6b69652063616e2070726f76696465207468652060008201527f626f6f6b732066756e64696e6700000000000000000000000000000000000000602082015250565b7f4552433732313a20617070726f76616c20746f2063757272656e74206f776e6560008201527f7200000000000000000000000000000000000000000000000000000000000000602082015250565b7f4d7573742068617665206d6f7265207468616e2031206f7074696f6e20746f2060008201527f626574206f6e0000000000000000000000000000000000000000000000000000602082015250565b7f4552433732313a207472616e736665722063616c6c6572206973206e6f74206f60008201527f776e6572206e6f7220617070726f766564000000000000000000000000000000602082015250565b7f4d7573742073656e6420656e6f7567682077656920746f2066756e642065616360008201527f68206f7074696f6e000000000000000000000000000000000000000000000000602082015250565b7f626574206d7573742062652077697468696e206f7074696f6e73000000000000600082015250565b613fbd816135d3565b8114613fc857600080fd5b50565b613fd4816135e5565b8114613fdf57600080fd5b50565b613feb816135f1565b8114613ff657600080fd5b50565b614002816135fb565b811461400d57600080fd5b50565b61401981613647565b811461402457600080fd5b5056fea264697066735822122032935434dfdc8073fb327ff5f8925389185d149811f1df81fcf9561a631c849064736f6c63430008070033",
			"opcodes": "PUSH1 0x80 PUSH1 0x40 MSTORE PUSH1 0x0 PUSH1 0x6 SSTORE CALLVALUE DUP1 ISZERO PUSH3 0x16 JUMPI PUSH1 0x0 DUP1 REVERT JUMPDEST POP PUSH1 0x40 MLOAD DUP1 PUSH1 0x40 ADD PUSH1 0x40 MSTORE DUP1 PUSH1 0xE DUP2 MSTORE PUSH1 0x20 ADD PUSH32 0x42657474696E67205469636B6574000000000000000000000000000000000000 DUP2 MSTORE POP PUSH1 0x40 MLOAD DUP1 PUSH1 0x40 ADD PUSH1 0x40 MSTORE DUP1 PUSH1 0x3 DUP2 MSTORE PUSH1 0x20 ADD PUSH32 0x4245540000000000000000000000000000000000000000000000000000000000 DUP2 MSTORE POP DUP2 PUSH1 0x0 SWAP1 DUP1 MLOAD SWAP1 PUSH1 0x20 ADD SWAP1 PUSH3 0x9B SWAP3 SWAP2 SWAP1 PUSH3 0xBD JUMP JUMPDEST POP DUP1 PUSH1 0x1 SWAP1 DUP1 MLOAD SWAP1 PUSH1 0x20 ADD SWAP1 PUSH3 0xB4 SWAP3 SWAP2 SWAP1 PUSH3 0xBD JUMP JUMPDEST POP POP POP PUSH3 0x1D2 JUMP JUMPDEST DUP3 DUP1 SLOAD PUSH3 0xCB SWAP1 PUSH3 0x16D JUMP JUMPDEST SWAP1 PUSH1 0x0 MSTORE PUSH1 0x20 PUSH1 0x0 KECCAK256 SWAP1 PUSH1 0x1F ADD PUSH1 0x20 SWAP1 DIV DUP2 ADD SWAP3 DUP3 PUSH3 0xEF JUMPI PUSH1 0x0 DUP6 SSTORE PUSH3 0x13B JUMP JUMPDEST DUP3 PUSH1 0x1F LT PUSH3 0x10A JUMPI DUP1 MLOAD PUSH1 0xFF NOT AND DUP4 DUP1 ADD OR DUP6 SSTORE PUSH3 0x13B JUMP JUMPDEST DUP3 DUP1 ADD PUSH1 0x1 ADD DUP6 SSTORE DUP3 ISZERO PUSH3 0x13B JUMPI SWAP2 DUP3 ADD JUMPDEST DUP3 DUP2 GT ISZERO PUSH3 0x13A JUMPI DUP3 MLOAD DUP3 SSTORE SWAP2 PUSH1 0x20 ADD SWAP2 SWAP1 PUSH1 0x1 ADD SWAP1 PUSH3 0x11D JUMP JUMPDEST JUMPDEST POP SWAP1 POP PUSH3 0x14A SWAP2 SWAP1 PUSH3 0x14E JUMP JUMPDEST POP SWAP1 JUMP JUMPDEST JUMPDEST DUP1 DUP3 GT ISZERO PUSH3 0x169 JUMPI PUSH1 0x0 DUP2 PUSH1 0x0 SWAP1 SSTORE POP PUSH1 0x1 ADD PUSH3 0x14F JUMP JUMPDEST POP SWAP1 JUMP JUMPDEST PUSH1 0x0 PUSH1 0x2 DUP3 DIV SWAP1 POP PUSH1 0x1 DUP3 AND DUP1 PUSH3 0x186 JUMPI PUSH1 0x7F DUP3 AND SWAP2 POP JUMPDEST PUSH1 0x20 DUP3 LT DUP2 EQ ISZERO PUSH3 0x19D JUMPI PUSH3 0x19C PUSH3 0x1A3 JUMP JUMPDEST JUMPDEST POP SWAP2 SWAP1 POP JUMP JUMPDEST PUSH32 0x4E487B7100000000000000000000000000000000000000000000000000000000 PUSH1 0x0 MSTORE PUSH1 0x22 PUSH1 0x4 MSTORE PUSH1 0x24 PUSH1 0x0 REVERT JUMPDEST PUSH2 0x405D DUP1 PUSH3 0x1E2 PUSH1 0x0 CODECOPY PUSH1 0x0 RETURN INVALID PUSH1 0x80 PUSH1 0x40 MSTORE PUSH1 0x4 CALLDATASIZE LT PUSH2 0x135 JUMPI PUSH1 0x0 CALLDATALOAD PUSH1 0xE0 SHR DUP1 PUSH4 0x6352211E GT PUSH2 0xAB JUMPI DUP1 PUSH4 0x95D89B41 GT PUSH2 0x6F JUMPI DUP1 PUSH4 0x95D89B41 EQ PUSH2 0x454 JUMPI DUP1 PUSH4 0xA22CB465 EQ PUSH2 0x47F JUMPI DUP1 PUSH4 0xB88D4FDE EQ PUSH2 0x4A8 JUMPI DUP1 PUSH4 0xC87B56DD EQ PUSH2 0x4D1 JUMPI DUP1 PUSH4 0xE985E9C5 EQ PUSH2 0x50E JUMPI DUP1 PUSH4 0xF3118D8E EQ PUSH2 0x54B JUMPI PUSH2 0x135 JUMP JUMPDEST DUP1 PUSH4 0x6352211E EQ PUSH2 0x335 JUMPI DUP1 PUSH4 0x70A08231 EQ PUSH2 0x372 JUMPI DUP1 PUSH4 0x726E0320 EQ PUSH2 0x3AF JUMPI DUP1 PUSH4 0x7BAB25D1 EQ PUSH2 0x3D8 JUMPI DUP1 PUSH4 0x81007391 EQ PUSH2 0x417 JUMPI PUSH2 0x135 JUMP JUMPDEST DUP1 PUSH4 0x154048AB GT PUSH2 0xFD JUMPI DUP1 PUSH4 0x154048AB EQ PUSH2 0x24A JUMPI DUP1 PUSH4 0x16FD381A EQ PUSH2 0x266 JUMPI DUP1 PUSH4 0x23B872DD EQ PUSH2 0x28F JUMPI DUP1 PUSH4 0x2451D316 EQ PUSH2 0x2B8 JUMPI DUP1 PUSH4 0x34913F28 EQ PUSH2 0x2E1 JUMPI DUP1 PUSH4 0x42842E0E EQ PUSH2 0x30C JUMPI PUSH2 0x135 JUMP JUMPDEST DUP1 PUSH4 0x1FFC9A7 EQ PUSH2 0x13A JUMPI DUP1 PUSH4 0x6FDDE03 EQ PUSH2 0x177 JUMPI DUP1 PUSH4 0x81812FC EQ PUSH2 0x1A2 JUMPI DUP1 PUSH4 0x95EA7B3 EQ PUSH2 0x1DF JUMPI DUP1 PUSH4 0xC0DEE70 EQ PUSH2 0x208 JUMPI JUMPDEST PUSH1 0x0 DUP1 REVERT JUMPDEST CALLVALUE DUP1 ISZERO PUSH2 0x146 JUMPI PUSH1 0x0 DUP1 REVERT JUMPDEST POP PUSH2 0x161 PUSH1 0x4 DUP1 CALLDATASIZE SUB DUP2 ADD SWAP1 PUSH2 0x15C SWAP2 SWAP1 PUSH2 0x29CC JUMP JUMPDEST PUSH2 0x567 JUMP JUMPDEST PUSH1 0x40 MLOAD PUSH2 0x16E SWAP2 SWAP1 PUSH2 0x303F JUMP JUMPDEST PUSH1 0x40 MLOAD DUP1 SWAP2 SUB SWAP1 RETURN JUMPDEST CALLVALUE DUP1 ISZERO PUSH2 0x183 JUMPI PUSH1 0x0 DUP1 REVERT JUMPDEST POP PUSH2 0x18C PUSH2 0x649 JUMP JUMPDEST PUSH1 0x40 MLOAD PUSH2 0x199 SWAP2 SWAP1 PUSH2 0x3091 JUMP JUMPDEST PUSH1 0x40 MLOAD DUP1 SWAP2 SUB SWAP1 RETURN JUMPDEST CALLVALUE DUP1 ISZERO PUSH2 0x1AE JUMPI PUSH1 0x0 DUP1 REVERT JUMPDEST POP PUSH2 0x1C9 PUSH1 0x4 DUP1 CALLDATASIZE SUB DUP2 ADD SWAP1 PUSH2 0x1C4 SWAP2 SWAP1 PUSH2 0x2A26 JUMP JUMPDEST PUSH2 0x6DB JUMP JUMPDEST PUSH1 0x40 MLOAD PUSH2 0x1D6 SWAP2 SWAP1 PUSH2 0x2F4E JUMP JUMPDEST PUSH1 0x40 MLOAD DUP1 SWAP2 SUB SWAP1 RETURN JUMPDEST CALLVALUE DUP1 ISZERO PUSH2 0x1EB JUMPI PUSH1 0x0 DUP1 REVERT JUMPDEST POP PUSH2 0x206 PUSH1 0x4 DUP1 CALLDATASIZE SUB DUP2 ADD SWAP1 PUSH2 0x201 SWAP2 SWAP1 PUSH2 0x2879 JUMP JUMPDEST PUSH2 0x760 JUMP JUMPDEST STOP JUMPDEST CALLVALUE DUP1 ISZERO PUSH2 0x214 JUMPI PUSH1 0x0 DUP1 REVERT JUMPDEST POP PUSH2 0x22F PUSH1 0x4 DUP1 CALLDATASIZE SUB DUP2 ADD SWAP1 PUSH2 0x22A SWAP2 SWAP1 PUSH2 0x290C JUMP JUMPDEST PUSH2 0x878 JUMP JUMPDEST PUSH1 0x40 MLOAD PUSH2 0x241 SWAP7 SWAP6 SWAP5 SWAP4 SWAP3 SWAP2 SWAP1 PUSH2 0x2FDE JUMP JUMPDEST PUSH1 0x40 MLOAD DUP1 SWAP2 SUB SWAP1 RETURN JUMPDEST PUSH2 0x264 PUSH1 0x4 DUP1 CALLDATASIZE SUB DUP2 ADD SWAP1 PUSH2 0x25F SWAP2 SWAP1 PUSH2 0x290C JUMP JUMPDEST PUSH2 0x8E1 JUMP JUMPDEST STOP JUMPDEST CALLVALUE DUP1 ISZERO PUSH2 0x272 JUMPI PUSH1 0x0 DUP1 REVERT JUMPDEST POP PUSH2 0x28D PUSH1 0x4 DUP1 CALLDATASIZE SUB DUP2 ADD SWAP1 PUSH2 0x288 SWAP2 SWAP1 PUSH2 0x2A26 JUMP JUMPDEST PUSH2 0xA88 JUMP JUMPDEST STOP JUMPDEST CALLVALUE DUP1 ISZERO PUSH2 0x29B JUMPI PUSH1 0x0 DUP1 REVERT JUMPDEST POP PUSH2 0x2B6 PUSH1 0x4 DUP1 CALLDATASIZE SUB DUP2 ADD SWAP1 PUSH2 0x2B1 SWAP2 SWAP1 PUSH2 0x2763 JUMP JUMPDEST PUSH2 0xBF9 JUMP JUMPDEST STOP JUMPDEST CALLVALUE DUP1 ISZERO PUSH2 0x2C4 JUMPI PUSH1 0x0 DUP1 REVERT JUMPDEST POP PUSH2 0x2DF PUSH1 0x4 DUP1 CALLDATASIZE SUB DUP2 ADD SWAP1 PUSH2 0x2DA SWAP2 SWAP1 PUSH2 0x28B9 JUMP JUMPDEST PUSH2 0xC59 JUMP JUMPDEST STOP JUMPDEST CALLVALUE DUP1 ISZERO PUSH2 0x2ED JUMPI PUSH1 0x0 DUP1 REVERT JUMPDEST POP PUSH2 0x2F6 PUSH2 0xFC1 JUMP JUMPDEST PUSH1 0x40 MLOAD PUSH2 0x303 SWAP2 SWAP1 PUSH2 0x33D3 JUMP JUMPDEST PUSH1 0x40 MLOAD DUP1 SWAP2 SUB SWAP1 RETURN JUMPDEST CALLVALUE DUP1 ISZERO PUSH2 0x318 JUMPI PUSH1 0x0 DUP1 REVERT JUMPDEST POP PUSH2 0x333 PUSH1 0x4 DUP1 CALLDATASIZE SUB DUP2 ADD SWAP1 PUSH2 0x32E SWAP2 SWAP1 PUSH2 0x2763 JUMP JUMPDEST PUSH2 0xFC7 JUMP JUMPDEST STOP JUMPDEST CALLVALUE DUP1 ISZERO PUSH2 0x341 JUMPI PUSH1 0x0 DUP1 REVERT JUMPDEST POP PUSH2 0x35C PUSH1 0x4 DUP1 CALLDATASIZE SUB DUP2 ADD SWAP1 PUSH2 0x357 SWAP2 SWAP1 PUSH2 0x2A26 JUMP JUMPDEST PUSH2 0xFE7 JUMP JUMPDEST PUSH1 0x40 MLOAD PUSH2 0x369 SWAP2 SWAP1 PUSH2 0x2F4E JUMP JUMPDEST PUSH1 0x40 MLOAD DUP1 SWAP2 SUB SWAP1 RETURN JUMPDEST CALLVALUE DUP1 ISZERO PUSH2 0x37E JUMPI PUSH1 0x0 DUP1 REVERT JUMPDEST POP PUSH2 0x399 PUSH1 0x4 DUP1 CALLDATASIZE SUB DUP2 ADD SWAP1 PUSH2 0x394 SWAP2 SWAP1 PUSH2 0x26F6 JUMP JUMPDEST PUSH2 0x1099 JUMP JUMPDEST PUSH1 0x40 MLOAD PUSH2 0x3A6 SWAP2 SWAP1 PUSH2 0x33D3 JUMP JUMPDEST PUSH1 0x40 MLOAD DUP1 SWAP2 SUB SWAP1 RETURN JUMPDEST CALLVALUE DUP1 ISZERO PUSH2 0x3BB JUMPI PUSH1 0x0 DUP1 REVERT JUMPDEST POP PUSH2 0x3D6 PUSH1 0x4 DUP1 CALLDATASIZE SUB DUP2 ADD SWAP1 PUSH2 0x3D1 SWAP2 SWAP1 PUSH2 0x2939 JUMP JUMPDEST PUSH2 0x1151 JUMP JUMPDEST STOP JUMPDEST CALLVALUE DUP1 ISZERO PUSH2 0x3E4 JUMPI PUSH1 0x0 DUP1 REVERT JUMPDEST POP PUSH2 0x3FF PUSH1 0x4 DUP1 CALLDATASIZE SUB DUP2 ADD SWAP1 PUSH2 0x3FA SWAP2 SWAP1 PUSH2 0x2A26 JUMP JUMPDEST PUSH2 0x1371 JUMP JUMPDEST PUSH1 0x40 MLOAD PUSH2 0x40E SWAP4 SWAP3 SWAP2 SWAP1 PUSH2 0x305A JUMP JUMPDEST PUSH1 0x40 MLOAD DUP1 SWAP2 SUB SWAP1 RETURN JUMPDEST CALLVALUE DUP1 ISZERO PUSH2 0x423 JUMPI PUSH1 0x0 DUP1 REVERT JUMPDEST POP PUSH2 0x43E PUSH1 0x4 DUP1 CALLDATASIZE SUB DUP2 ADD SWAP1 PUSH2 0x439 SWAP2 SWAP1 PUSH2 0x2979 JUMP JUMPDEST PUSH2 0x139B JUMP JUMPDEST PUSH1 0x40 MLOAD PUSH2 0x44B SWAP2 SWAP1 PUSH2 0x33D3 JUMP JUMPDEST PUSH1 0x40 MLOAD DUP1 SWAP2 SUB SWAP1 RETURN JUMPDEST CALLVALUE DUP1 ISZERO PUSH2 0x460 JUMPI PUSH1 0x0 DUP1 REVERT JUMPDEST POP PUSH2 0x469 PUSH2 0x14CC JUMP JUMPDEST PUSH1 0x40 MLOAD PUSH2 0x476 SWAP2 SWAP1 PUSH2 0x3091 JUMP JUMPDEST PUSH1 0x40 MLOAD DUP1 SWAP2 SUB SWAP1 RETURN JUMPDEST CALLVALUE DUP1 ISZERO PUSH2 0x48B JUMPI PUSH1 0x0 DUP1 REVERT JUMPDEST POP PUSH2 0x4A6 PUSH1 0x4 DUP1 CALLDATASIZE SUB DUP2 ADD SWAP1 PUSH2 0x4A1 SWAP2 SWAP1 PUSH2 0x2839 JUMP JUMPDEST PUSH2 0x155E JUMP JUMPDEST STOP JUMPDEST CALLVALUE DUP1 ISZERO PUSH2 0x4B4 JUMPI PUSH1 0x0 DUP1 REVERT JUMPDEST POP PUSH2 0x4CF PUSH1 0x4 DUP1 CALLDATASIZE SUB DUP2 ADD SWAP1 PUSH2 0x4CA SWAP2 SWAP1 PUSH2 0x27B6 JUMP JUMPDEST PUSH2 0x16DF JUMP JUMPDEST STOP JUMPDEST CALLVALUE DUP1 ISZERO PUSH2 0x4DD JUMPI PUSH1 0x0 DUP1 REVERT JUMPDEST POP PUSH2 0x4F8 PUSH1 0x4 DUP1 CALLDATASIZE SUB DUP2 ADD SWAP1 PUSH2 0x4F3 SWAP2 SWAP1 PUSH2 0x2A26 JUMP JUMPDEST PUSH2 0x1741 JUMP JUMPDEST PUSH1 0x40 MLOAD PUSH2 0x505 SWAP2 SWAP1 PUSH2 0x3091 JUMP JUMPDEST PUSH1 0x40 MLOAD DUP1 SWAP2 SUB SWAP1 RETURN JUMPDEST CALLVALUE DUP1 ISZERO PUSH2 0x51A JUMPI PUSH1 0x0 DUP1 REVERT JUMPDEST POP PUSH2 0x535 PUSH1 0x4 DUP1 CALLDATASIZE SUB DUP2 ADD SWAP1 PUSH2 0x530 SWAP2 SWAP1 PUSH2 0x2723 JUMP JUMPDEST PUSH2 0x17E8 JUMP JUMPDEST PUSH1 0x40 MLOAD PUSH2 0x542 SWAP2 SWAP1 PUSH2 0x303F JUMP JUMPDEST PUSH1 0x40 MLOAD DUP1 SWAP2 SUB SWAP1 RETURN JUMPDEST PUSH2 0x565 PUSH1 0x4 DUP1 CALLDATASIZE SUB DUP2 ADD SWAP1 PUSH2 0x560 SWAP2 SWAP1 PUSH2 0x2939 JUMP JUMPDEST PUSH2 0x187C JUMP JUMPDEST STOP JUMPDEST PUSH1 0x0 PUSH32 0x80AC58CD00000000000000000000000000000000000000000000000000000000 PUSH28 0xFFFFFFFFFFFFFFFFFFFFFFFFFFFFFFFFFFFFFFFFFFFFFFFFFFFFFFFF NOT AND DUP3 PUSH28 0xFFFFFFFFFFFFFFFFFFFFFFFFFFFFFFFFFFFFFFFFFFFFFFFFFFFFFFFF NOT AND EQ DUP1 PUSH2 0x632 JUMPI POP PUSH32 0x5B5E139F00000000000000000000000000000000000000000000000000000000 PUSH28 0xFFFFFFFFFFFFFFFFFFFFFFFFFFFFFFFFFFFFFFFFFFFFFFFFFFFFFFFF NOT AND DUP3 PUSH28 0xFFFFFFFFFFFFFFFFFFFFFFFFFFFFFFFFFFFFFFFFFFFFFFFFFFFFFFFF NOT AND EQ JUMPDEST DUP1 PUSH2 0x642 JUMPI POP PUSH2 0x641 DUP3 PUSH2 0x188C JUMP JUMPDEST JUMPDEST SWAP1 POP SWAP2 SWAP1 POP JUMP JUMPDEST PUSH1 0x60 PUSH1 0x0 DUP1 SLOAD PUSH2 0x658 SWAP1 PUSH2 0x3693 JUMP JUMPDEST DUP1 PUSH1 0x1F ADD PUSH1 0x20 DUP1 SWAP2 DIV MUL PUSH1 0x20 ADD PUSH1 0x40 MLOAD SWAP1 DUP2 ADD PUSH1 0x40 MSTORE DUP1 SWAP3 SWAP2 SWAP1 DUP2 DUP2 MSTORE PUSH1 0x20 ADD DUP3 DUP1 SLOAD PUSH2 0x684 SWAP1 PUSH2 0x3693 JUMP JUMPDEST DUP1 ISZERO PUSH2 0x6D1 JUMPI DUP1 PUSH1 0x1F LT PUSH2 0x6A6 JUMPI PUSH2 0x100 DUP1 DUP4 SLOAD DIV MUL DUP4 MSTORE SWAP2 PUSH1 0x20 ADD SWAP2 PUSH2 0x6D1 JUMP JUMPDEST DUP3 ADD SWAP2 SWAP1 PUSH1 0x0 MSTORE PUSH1 0x20 PUSH1 0x0 KECCAK256 SWAP1 JUMPDEST DUP2 SLOAD DUP2 MSTORE SWAP1 PUSH1 0x1 ADD SWAP1 PUSH1 0x20 ADD DUP1 DUP4 GT PUSH2 0x6B4 JUMPI DUP3 SWAP1 SUB PUSH1 0x1F AND DUP3 ADD SWAP2 JUMPDEST POP POP POP POP POP SWAP1 POP SWAP1 JUMP JUMPDEST PUSH1 0x0 PUSH2 0x6E6 DUP3 PUSH2 0x18F6 JUMP JUMPDEST PUSH2 0x725 JUMPI PUSH1 0x40 MLOAD PUSH32 0x8C379A000000000000000000000000000000000000000000000000000000000 DUP2 MSTORE PUSH1 0x4 ADD PUSH2 0x71C SWAP1 PUSH2 0x3293 JUMP JUMPDEST PUSH1 0x40 MLOAD DUP1 SWAP2 SUB SWAP1 REVERT JUMPDEST PUSH1 0x4 PUSH1 0x0 DUP4 DUP2 MSTORE PUSH1 0x20 ADD SWAP1 DUP2 MSTORE PUSH1 0x20 ADD PUSH1 0x0 KECCAK256 PUSH1 0x0 SWAP1 SLOAD SWAP1 PUSH2 0x100 EXP SWAP1 DIV PUSH20 0xFFFFFFFFFFFFFFFFFFFFFFFFFFFFFFFFFFFFFFFF AND SWAP1 POP SWAP2 SWAP1 POP JUMP JUMPDEST PUSH1 0x0 PUSH2 0x76B DUP3 PUSH2 0xFE7 JUMP JUMPDEST SWAP1 POP DUP1 PUSH20 0xFFFFFFFFFFFFFFFFFFFFFFFFFFFFFFFFFFFFFFFF AND DUP4 PUSH20 0xFFFFFFFFFFFFFFFFFFFFFFFFFFFFFFFFFFFFFFFF AND EQ ISZERO PUSH2 0x7DC JUMPI PUSH1 0x40 MLOAD PUSH32 0x8C379A000000000000000000000000000000000000000000000000000000000 DUP2 MSTORE PUSH1 0x4 ADD PUSH2 0x7D3 SWAP1 PUSH2 0x3333 JUMP JUMPDEST PUSH1 0x40 MLOAD DUP1 SWAP2 SUB SWAP1 REVERT JUMPDEST DUP1 PUSH20 0xFFFFFFFFFFFFFFFFFFFFFFFFFFFFFFFFFFFFFFFF AND PUSH2 0x7FB PUSH2 0x1962 JUMP JUMPDEST PUSH20 0xFFFFFFFFFFFFFFFFFFFFFFFFFFFFFFFFFFFFFFFF AND EQ DUP1 PUSH2 0x82A JUMPI POP PUSH2 0x829 DUP2 PUSH2 0x824 PUSH2 0x1962 JUMP JUMPDEST PUSH2 0x17E8 JUMP JUMPDEST JUMPDEST PUSH2 0x869 JUMPI PUSH1 0x40 MLOAD PUSH32 0x8C379A000000000000000000000000000000000000000000000000000000000 DUP2 MSTORE PUSH1 0x4 ADD PUSH2 0x860 SWAP1 PUSH2 0x3213 JUMP JUMPDEST PUSH1 0x40 MLOAD DUP1 SWAP2 SUB SWAP1 REVERT JUMPDEST PUSH2 0x873 DUP4 DUP4 PUSH2 0x196A JUMP JUMPDEST POP POP POP JUMP JUMPDEST PUSH1 0x8 PUSH1 0x20 MSTORE DUP1 PUSH1 0x0 MSTORE PUSH1 0x40 PUSH1 0x0 KECCAK256 PUSH1 0x0 SWAP2 POP SWAP1 POP DUP1 PUSH1 0x0 ADD PUSH1 0x0 SWAP1 SLOAD SWAP1 PUSH2 0x100 EXP SWAP1 DIV PUSH20 0xFFFFFFFFFFFFFFFFFFFFFFFFFFFFFFFFFFFFFFFF AND SWAP1 DUP1 PUSH1 0x1 ADD SLOAD SWAP1 DUP1 PUSH1 0x4 ADD SLOAD SWAP1 DUP1 PUSH1 0x5 ADD SLOAD SWAP1 DUP1 PUSH1 0x6 ADD PUSH1 0x0 SWAP1 SLOAD SWAP1 PUSH2 0x100 EXP SWAP1 DIV PUSH1 0xFF AND SWAP1 DUP1 PUSH1 0x7 ADD SLOAD SWAP1 POP DUP7 JUMP JUMPDEST PUSH1 0x8 PUSH1 0x0 DUP3 DUP2 MSTORE PUSH1 0x20 ADD SWAP1 DUP2 MSTORE PUSH1 0x20 ADD PUSH1 0x0 KECCAK256 PUSH1 0x0 ADD PUSH1 0x0 SWAP1 SLOAD SWAP1 PUSH2 0x100 EXP SWAP1 DIV PUSH20 0xFFFFFFFFFFFFFFFFFFFFFFFFFFFFFFFFFFFFFFFF AND PUSH20 0xFFFFFFFFFFFFFFFFFFFFFFFFFFFFFFFFFFFFFFFF AND CALLER PUSH20 0xFFFFFFFFFFFFFFFFFFFFFFFFFFFFFFFFFFFFFFFF AND EQ PUSH2 0x985 JUMPI PUSH1 0x40 MLOAD PUSH32 0x8C379A000000000000000000000000000000000000000000000000000000000 DUP2 MSTORE PUSH1 0x4 ADD PUSH2 0x97C SWAP1 PUSH2 0x3313 JUMP JUMPDEST PUSH1 0x40 MLOAD DUP1 SWAP2 SUB SWAP1 REVERT JUMPDEST PUSH1 0x0 DUP1 PUSH1 0x8 PUSH1 0x0 DUP5 DUP2 MSTORE PUSH1 0x20 ADD SWAP1 DUP2 MSTORE PUSH1 0x20 ADD PUSH1 0x0 KECCAK256 PUSH1 0x4 ADD SLOAD CALLVALUE PUSH2 0x9AA SWAP2 SWAP1 PUSH2 0x3514 JUMP JUMPDEST SWAP1 POP PUSH1 0x1 DUP2 GT PUSH2 0x9EF JUMPI PUSH1 0x40 MLOAD PUSH32 0x8C379A000000000000000000000000000000000000000000000000000000000 DUP2 MSTORE PUSH1 0x4 ADD PUSH2 0x9E6 SWAP1 PUSH2 0x3393 JUMP JUMPDEST PUSH1 0x40 MLOAD DUP1 SWAP2 SUB SWAP1 REVERT JUMPDEST PUSH1 0x0 JUMPDEST PUSH1 0x1 PUSH1 0x8 PUSH1 0x0 DUP7 DUP2 MSTORE PUSH1 0x20 ADD SWAP1 DUP2 MSTORE PUSH1 0x20 ADD PUSH1 0x0 KECCAK256 PUSH1 0x4 ADD SLOAD PUSH2 0xA15 SWAP2 SWAP1 PUSH2 0x359F JUMP JUMPDEST DUP2 LT ISZERO PUSH2 0xA49 JUMPI DUP2 DUP4 PUSH2 0xA28 SWAP2 SWAP1 PUSH2 0x34BE JUMP JUMPDEST SWAP3 POP PUSH2 0xA36 CALLER DUP6 DUP4 DUP6 PUSH2 0x1A23 JUMP JUMPDEST DUP1 DUP1 PUSH2 0xA41 SWAP1 PUSH2 0x36F6 JUMP JUMPDEST SWAP2 POP POP PUSH2 0x9F2 JUMP JUMPDEST POP PUSH2 0xA83 CALLER DUP5 PUSH1 0x1 PUSH1 0x8 PUSH1 0x0 DUP9 DUP2 MSTORE PUSH1 0x20 ADD SWAP1 DUP2 MSTORE PUSH1 0x20 ADD PUSH1 0x0 KECCAK256 PUSH1 0x4 ADD SLOAD PUSH2 0xA72 SWAP2 SWAP1 PUSH2 0x359F JUMP JUMPDEST DUP6 CALLVALUE PUSH2 0xA7E SWAP2 SWAP1 PUSH2 0x359F JUMP JUMPDEST PUSH2 0x1A23 JUMP JUMPDEST POP POP POP JUMP JUMPDEST PUSH1 0x8 PUSH1 0x0 PUSH1 0x7 PUSH1 0x0 DUP5 DUP2 MSTORE PUSH1 0x20 ADD SWAP1 DUP2 MSTORE PUSH1 0x20 ADD PUSH1 0x0 KECCAK256 PUSH1 0x0 ADD SLOAD DUP2 MSTORE PUSH1 0x20 ADD SWAP1 DUP2 MSTORE PUSH1 0x20 ADD PUSH1 0x0 KECCAK256 PUSH1 0x6 ADD PUSH1 0x0 SWAP1 SLOAD SWAP1 PUSH2 0x100 EXP SWAP1 DIV PUSH1 0xFF AND PUSH2 0xB01 JUMPI PUSH1 0x40 MLOAD PUSH32 0x8C379A000000000000000000000000000000000000000000000000000000000 DUP2 MSTORE PUSH1 0x4 ADD PUSH2 0xAF8 SWAP1 PUSH2 0x30B3 JUMP JUMPDEST PUSH1 0x40 MLOAD DUP1 SWAP2 SUB SWAP1 REVERT JUMPDEST PUSH1 0x7 PUSH1 0x0 DUP3 DUP2 MSTORE PUSH1 0x20 ADD SWAP1 DUP2 MSTORE PUSH1 0x20 ADD PUSH1 0x0 KECCAK256 PUSH1 0x1 ADD SLOAD PUSH1 0x8 PUSH1 0x0 PUSH1 0x7 PUSH1 0x0 DUP6 DUP2 MSTORE PUSH1 0x20 ADD SWAP1 DUP2 MSTORE PUSH1 0x20 ADD PUSH1 0x0 KECCAK256 PUSH1 0x0 ADD SLOAD DUP2 MSTORE PUSH1 0x20 ADD SWAP1 DUP2 MSTORE PUSH1 0x20 ADD PUSH1 0x0 KECCAK256 PUSH1 0x7 ADD SLOAD EQ PUSH2 0xB85 JUMPI PUSH1 0x40 MLOAD PUSH32 0x8C379A000000000000000000000000000000000000000000000000000000000 DUP2 MSTORE PUSH1 0x4 ADD PUSH2 0xB7C SWAP1 PUSH2 0x31B3 JUMP JUMPDEST PUSH1 0x40 MLOAD DUP1 SWAP2 SUB SWAP1 REVERT JUMPDEST PUSH2 0xB90 CALLER ADDRESS DUP4 PUSH2 0xBF9 JUMP JUMPDEST PUSH2 0xB99 DUP2 PUSH2 0x1C02 JUMP JUMPDEST CALLER PUSH20 0xFFFFFFFFFFFFFFFFFFFFFFFFFFFFFFFFFFFFFFFF AND PUSH2 0x8FC PUSH1 0x7 PUSH1 0x0 DUP5 DUP2 MSTORE PUSH1 0x20 ADD SWAP1 DUP2 MSTORE PUSH1 0x20 ADD PUSH1 0x0 KECCAK256 PUSH1 0x2 ADD SLOAD SWAP1 DUP2 ISZERO MUL SWAP1 PUSH1 0x40 MLOAD PUSH1 0x0 PUSH1 0x40 MLOAD DUP1 DUP4 SUB DUP2 DUP6 DUP9 DUP9 CALL SWAP4 POP POP POP POP ISZERO DUP1 ISZERO PUSH2 0xBF5 JUMPI RETURNDATASIZE PUSH1 0x0 DUP1 RETURNDATACOPY RETURNDATASIZE PUSH1 0x0 REVERT JUMPDEST POP POP JUMP JUMPDEST PUSH2 0xC0A PUSH2 0xC04 PUSH2 0x1962 JUMP JUMPDEST DUP3 PUSH2 0x1D13 JUMP JUMPDEST PUSH2 0xC49 JUMPI PUSH1 0x40 MLOAD PUSH32 0x8C379A000000000000000000000000000000000000000000000000000000000 DUP2 MSTORE PUSH1 0x4 ADD PUSH2 0xC40 SWAP1 PUSH2 0x3373 JUMP JUMPDEST PUSH1 0x40 MLOAD DUP1 SWAP2 SUB SWAP1 REVERT JUMPDEST PUSH2 0xC54 DUP4 DUP4 DUP4 PUSH2 0x1DF1 JUMP JUMPDEST POP POP POP JUMP JUMPDEST PUSH2 0x2710 DUP2 LT PUSH2 0xC9D JUMPI PUSH1 0x40 MLOAD PUSH32 0x8C379A000000000000000000000000000000000000000000000000000000000 DUP2 MSTORE PUSH1 0x4 ADD PUSH2 0xC94 SWAP1 PUSH2 0x31F3 JUMP JUMPDEST PUSH1 0x40 MLOAD DUP1 SWAP2 SUB SWAP1 REVERT JUMPDEST PUSH1 0x1 DUP3 GT PUSH2 0xCE0 JUMPI PUSH1 0x40 MLOAD PUSH32 0x8C379A000000000000000000000000000000000000000000000000000000000 DUP2 MSTORE PUSH1 0x4 ADD PUSH2 0xCD7 SWAP1 PUSH2 0x3353 JUMP JUMPDEST PUSH1 0x40 MLOAD DUP1 SWAP2 SUB SWAP1 REVERT JUMPDEST PUSH1 0x0 PUSH1 0x40 MLOAD DUP1 PUSH2 0x100 ADD PUSH1 0x40 MSTORE DUP1 DUP6 PUSH20 0xFFFFFFFFFFFFFFFFFFFFFFFFFFFFFFFFFFFFFFFF AND DUP2 MSTORE PUSH1 0x20 ADD DUP4 DUP2 MSTORE PUSH1 0x20 ADD DUP5 PUSH8 0xFFFFFFFFFFFFFFFF DUP2 GT ISZERO PUSH2 0xD2A JUMPI PUSH2 0xD29 PUSH2 0x385A JUMP JUMPDEST JUMPDEST PUSH1 0x40 MLOAD SWAP1 DUP1 DUP3 MSTORE DUP1 PUSH1 0x20 MUL PUSH1 0x20 ADD DUP3 ADD PUSH1 0x40 MSTORE DUP1 ISZERO PUSH2 0xD58 JUMPI DUP2 PUSH1 0x20 ADD PUSH1 0x20 DUP3 MUL DUP1 CALLDATASIZE DUP4 CALLDATACOPY DUP1 DUP3 ADD SWAP2 POP POP SWAP1 POP JUMPDEST POP DUP2 MSTORE PUSH1 0x20 ADD DUP5 PUSH8 0xFFFFFFFFFFFFFFFF DUP2 GT ISZERO PUSH2 0xD78 JUMPI PUSH2 0xD77 PUSH2 0x385A JUMP JUMPDEST JUMPDEST PUSH1 0x40 MLOAD SWAP1 DUP1 DUP3 MSTORE DUP1 PUSH1 0x20 MUL PUSH1 0x20 ADD DUP3 ADD PUSH1 0x40 MSTORE DUP1 ISZERO PUSH2 0xDA6 JUMPI DUP2 PUSH1 0x20 ADD PUSH1 0x20 DUP3 MUL DUP1 CALLDATASIZE DUP4 CALLDATACOPY DUP1 DUP3 ADD SWAP2 POP POP SWAP1 POP JUMPDEST POP DUP2 MSTORE PUSH1 0x20 ADD DUP5 DUP2 MSTORE PUSH1 0x20 ADD PUSH1 0x0 DUP2 MSTORE PUSH1 0x20 ADD PUSH1 0x0 ISZERO ISZERO DUP2 MSTORE PUSH1 0x20 ADD PUSH1 0x0 DUP2 MSTORE POP SWAP1 POP PUSH1 0x0 DUP5 DUP4 DUP6 CALLER TIMESTAMP PUSH1 0x40 MLOAD PUSH1 0x20 ADD PUSH2 0xDE4 SWAP6 SWAP5 SWAP4 SWAP3 SWAP2 SWAP1 PUSH2 0x2ECB JUMP JUMPDEST PUSH1 0x40 MLOAD PUSH1 0x20 DUP2 DUP4 SUB SUB DUP2 MSTORE SWAP1 PUSH1 0x40 MSTORE DUP1 MLOAD SWAP1 PUSH1 0x20 ADD KECCAK256 SWAP1 POP PUSH1 0x0 PUSH20 0xFFFFFFFFFFFFFFFFFFFFFFFFFFFFFFFFFFFFFFFF AND PUSH1 0x8 PUSH1 0x0 DUP4 DUP2 MSTORE PUSH1 0x20 ADD SWAP1 DUP2 MSTORE PUSH1 0x20 ADD PUSH1 0x0 KECCAK256 PUSH1 0x0 ADD PUSH1 0x0 SWAP1 SLOAD SWAP1 PUSH2 0x100 EXP SWAP1 DIV PUSH20 0xFFFFFFFFFFFFFFFFFFFFFFFFFFFFFFFFFFFFFFFF AND PUSH20 0xFFFFFFFFFFFFFFFFFFFFFFFFFFFFFFFFFFFFFFFF AND EQ PUSH2 0xEA1 JUMPI PUSH1 0x40 MLOAD PUSH32 0x8C379A000000000000000000000000000000000000000000000000000000000 DUP2 MSTORE PUSH1 0x4 ADD PUSH2 0xE98 SWAP1 PUSH2 0x3133 JUMP JUMPDEST PUSH1 0x40 MLOAD DUP1 SWAP2 SUB SWAP1 REVERT JUMPDEST DUP2 PUSH1 0x8 PUSH1 0x0 DUP4 DUP2 MSTORE PUSH1 0x20 ADD SWAP1 DUP2 MSTORE PUSH1 0x20 ADD PUSH1 0x0 KECCAK256 PUSH1 0x0 DUP3 ADD MLOAD DUP2 PUSH1 0x0 ADD PUSH1 0x0 PUSH2 0x100 EXP DUP2 SLOAD DUP2 PUSH20 0xFFFFFFFFFFFFFFFFFFFFFFFFFFFFFFFFFFFFFFFF MUL NOT AND SWAP1 DUP4 PUSH20 0xFFFFFFFFFFFFFFFFFFFFFFFFFFFFFFFFFFFFFFFF AND MUL OR SWAP1 SSTORE POP PUSH1 0x20 DUP3 ADD MLOAD DUP2 PUSH1 0x1 ADD SSTORE PUSH1 0x40 DUP3 ADD MLOAD DUP2 PUSH1 0x2 ADD SWAP1 DUP1 MLOAD SWAP1 PUSH1 0x20 ADD SWAP1 PUSH2 0xF22 SWAP3 SWAP2 SWAP1 PUSH2 0x259E JUMP JUMPDEST POP PUSH1 0x60 DUP3 ADD MLOAD DUP2 PUSH1 0x3 ADD SWAP1 DUP1 MLOAD SWAP1 PUSH1 0x20 ADD SWAP1 PUSH2 0xF3F SWAP3 SWAP2 SWAP1 PUSH2 0x259E JUMP JUMPDEST POP PUSH1 0x80 DUP3 ADD MLOAD DUP2 PUSH1 0x4 ADD SSTORE PUSH1 0xA0 DUP3 ADD MLOAD DUP2 PUSH1 0x5 ADD SSTORE PUSH1 0xC0 DUP3 ADD MLOAD DUP2 PUSH1 0x6 ADD PUSH1 0x0 PUSH2 0x100 EXP DUP2 SLOAD DUP2 PUSH1 0xFF MUL NOT AND SWAP1 DUP4 ISZERO ISZERO MUL OR SWAP1 SSTORE POP PUSH1 0xE0 DUP3 ADD MLOAD DUP2 PUSH1 0x7 ADD SSTORE SWAP1 POP POP PUSH32 0xBC339E5933AC6A883787F7B4E2F57EBC7CDBBB4F6A23A30CD8C7B18C8ACB593B DUP6 DUP3 PUSH1 0x40 MLOAD PUSH2 0xFB2 SWAP3 SWAP2 SWAP1 PUSH2 0x2FB5 JUMP JUMPDEST PUSH1 0x40 MLOAD DUP1 SWAP2 SUB SWAP1 LOG1 POP POP POP POP POP JUMP JUMPDEST PUSH2 0x2710 DUP2 JUMP JUMPDEST PUSH2 0xFE2 DUP4 DUP4 DUP4 PUSH1 0x40 MLOAD DUP1 PUSH1 0x20 ADD PUSH1 0x40 MSTORE DUP1 PUSH1 0x0 DUP2 MSTORE POP PUSH2 0x16DF JUMP JUMPDEST POP POP POP JUMP JUMPDEST PUSH1 0x0 DUP1 PUSH1 0x2 PUSH1 0x0 DUP5 DUP2 MSTORE PUSH1 0x20 ADD SWAP1 DUP2 MSTORE PUSH1 0x20 ADD PUSH1 0x0 KECCAK256 PUSH1 0x0 SWAP1 SLOAD SWAP1 PUSH2 0x100 EXP SWAP1 DIV PUSH20 0xFFFFFFFFFFFFFFFFFFFFFFFFFFFFFFFFFFFFFFFF AND SWAP1 POP PUSH1 0x0 PUSH20 0xFFFFFFFFFFFFFFFFFFFFFFFFFFFFFFFFFFFFFFFF AND DUP2 PUSH20 0xFFFFFFFFFFFFFFFFFFFFFFFFFFFFFFFFFFFFFFFF AND EQ ISZERO PUSH2 0x1090 JUMPI PUSH1 0x40 MLOAD PUSH32 0x8C379A000000000000000000000000000000000000000000000000000000000 DUP2 MSTORE PUSH1 0x4 ADD PUSH2 0x1087 SWAP1 PUSH2 0x3253 JUMP JUMPDEST PUSH1 0x40 MLOAD DUP1 SWAP2 SUB SWAP1 REVERT JUMPDEST DUP1 SWAP2 POP POP SWAP2 SWAP1 POP JUMP JUMPDEST PUSH1 0x0 DUP1 PUSH20 0xFFFFFFFFFFFFFFFFFFFFFFFFFFFFFFFFFFFFFFFF AND DUP3 PUSH20 0xFFFFFFFFFFFFFFFFFFFFFFFFFFFFFFFFFFFFFFFF AND EQ ISZERO PUSH2 0x110A JUMPI PUSH1 0x40 MLOAD PUSH32 0x8C379A000000000000000000000000000000000000000000000000000000000 DUP2 MSTORE PUSH1 0x4 ADD PUSH2 0x1101 SWAP1 PUSH2 0x3233 JUMP JUMPDEST PUSH1 0x40 MLOAD DUP1 SWAP2 SUB SWAP1 REVERT JUMPDEST PUSH1 0x3 PUSH1 0x0 DUP4 PUSH20 0xFFFFFFFFFFFFFFFFFFFFFFFFFFFFFFFFFFFFFFFF AND PUSH20 0xFFFFFFFFFFFFFFFFFFFFFFFFFFFFFFFFFFFFFFFF AND DUP2 MSTORE PUSH1 0x20 ADD SWAP1 DUP2 MSTORE PUSH1 0x20 ADD PUSH1 0x0 KECCAK256 SLOAD SWAP1 POP SWAP2 SWAP1 POP JUMP JUMPDEST PUSH1 0x8 PUSH1 0x0 DUP4 DUP2 MSTORE PUSH1 0x20 ADD SWAP1 DUP2 MSTORE PUSH1 0x20 ADD PUSH1 0x0 KECCAK256 PUSH1 0x4 ADD SLOAD DUP2 LT PUSH2 0x11A9 JUMPI PUSH1 0x40 MLOAD PUSH32 0x8C379A000000000000000000000000000000000000000000000000000000000 DUP2 MSTORE PUSH1 0x4 ADD PUSH2 0x11A0 SWAP1 PUSH2 0x30F3 JUMP JUMPDEST PUSH1 0x40 MLOAD DUP1 SWAP2 SUB SWAP1 REVERT JUMPDEST PUSH1 0x8 PUSH1 0x0 DUP4 DUP2 MSTORE PUSH1 0x20 ADD SWAP1 DUP2 MSTORE PUSH1 0x20 ADD PUSH1 0x0 KECCAK256 PUSH1 0x0 ADD PUSH1 0x0 SWAP1 SLOAD SWAP1 PUSH2 0x100 EXP SWAP1 DIV PUSH20 0xFFFFFFFFFFFFFFFFFFFFFFFFFFFFFFFFFFFFFFFF AND PUSH20 0xFFFFFFFFFFFFFFFFFFFFFFFFFFFFFFFFFFFFFFFF AND CALLER PUSH20 0xFFFFFFFFFFFFFFFFFFFFFFFFFFFFFFFFFFFFFFFF AND EQ PUSH2 0x124D JUMPI PUSH1 0x40 MLOAD PUSH32 0x8C379A000000000000000000000000000000000000000000000000000000000 DUP2 MSTORE PUSH1 0x4 ADD PUSH2 0x1244 SWAP1 PUSH2 0x32B3 JUMP JUMPDEST PUSH1 0x40 MLOAD DUP1 SWAP2 SUB SWAP1 REVERT JUMPDEST DUP1 PUSH1 0x8 PUSH1 0x0 DUP5 DUP2 MSTORE PUSH1 0x20 ADD SWAP1 DUP2 MSTORE PUSH1 0x20 ADD PUSH1 0x0 KECCAK256 PUSH1 0x7 ADD DUP2 SWAP1 SSTORE POP PUSH1 0x1 PUSH1 0x8 PUSH1 0x0 DUP5 DUP2 MSTORE PUSH1 0x20 ADD SWAP1 DUP2 MSTORE PUSH1 0x20 ADD PUSH1 0x0 KECCAK256 PUSH1 0x6 ADD PUSH1 0x0 PUSH2 0x100 EXP DUP2 SLOAD DUP2 PUSH1 0xFF MUL NOT AND SWAP1 DUP4 ISZERO ISZERO MUL OR SWAP1 SSTORE POP PUSH1 0x0 PUSH1 0x8 PUSH1 0x0 DUP5 DUP2 MSTORE PUSH1 0x20 ADD SWAP1 DUP2 MSTORE PUSH1 0x20 ADD PUSH1 0x0 KECCAK256 PUSH1 0x3 ADD DUP3 DUP2 SLOAD DUP2 LT PUSH2 0x12C1 JUMPI PUSH2 0x12C0 PUSH2 0x382B JUMP JUMPDEST JUMPDEST SWAP1 PUSH1 0x0 MSTORE PUSH1 0x20 PUSH1 0x0 KECCAK256 ADD SLOAD PUSH1 0x8 PUSH1 0x0 DUP6 DUP2 MSTORE PUSH1 0x20 ADD SWAP1 DUP2 MSTORE PUSH1 0x20 ADD PUSH1 0x0 KECCAK256 PUSH1 0x5 ADD SLOAD PUSH2 0x12ED SWAP2 SWAP1 PUSH2 0x359F JUMP JUMPDEST SWAP1 POP PUSH1 0x8 PUSH1 0x0 DUP5 DUP2 MSTORE PUSH1 0x20 ADD SWAP1 DUP2 MSTORE PUSH1 0x20 ADD PUSH1 0x0 KECCAK256 PUSH1 0x0 ADD PUSH1 0x0 SWAP1 SLOAD SWAP1 PUSH2 0x100 EXP SWAP1 DIV PUSH20 0xFFFFFFFFFFFFFFFFFFFFFFFFFFFFFFFFFFFFFFFF AND PUSH20 0xFFFFFFFFFFFFFFFFFFFFFFFFFFFFFFFFFFFFFFFF AND PUSH2 0x8FC DUP3 SWAP1 DUP2 ISZERO MUL SWAP1 PUSH1 0x40 MLOAD PUSH1 0x0 PUSH1 0x40 MLOAD DUP1 DUP4 SUB DUP2 DUP6 DUP9 DUP9 CALL SWAP4 POP POP POP POP ISZERO DUP1 ISZERO PUSH2 0x136B JUMPI RETURNDATASIZE PUSH1 0x0 DUP1 RETURNDATACOPY RETURNDATASIZE PUSH1 0x0 REVERT JUMPDEST POP POP POP POP JUMP JUMPDEST PUSH1 0x7 PUSH1 0x20 MSTORE DUP1 PUSH1 0x0 MSTORE PUSH1 0x40 PUSH1 0x0 KECCAK256 PUSH1 0x0 SWAP2 POP SWAP1 POP DUP1 PUSH1 0x0 ADD SLOAD SWAP1 DUP1 PUSH1 0x1 ADD SLOAD SWAP1 DUP1 PUSH1 0x2 ADD SLOAD SWAP1 POP DUP4 JUMP JUMPDEST PUSH1 0x0 DUP3 PUSH1 0x8 PUSH1 0x0 DUP7 DUP2 MSTORE PUSH1 0x20 ADD SWAP1 DUP2 MSTORE PUSH1 0x20 ADD PUSH1 0x0 KECCAK256 PUSH1 0x4 ADD SLOAD GT PUSH2 0x13F5 JUMPI PUSH1 0x40 MLOAD PUSH32 0x8C379A000000000000000000000000000000000000000000000000000000000 DUP2 MSTORE PUSH1 0x4 ADD PUSH2 0x13EC SWAP1 PUSH2 0x3193 JUMP JUMPDEST PUSH1 0x40 MLOAD DUP1 SWAP2 SUB SWAP1 REVERT JUMPDEST PUSH1 0x0 PUSH1 0x8 PUSH1 0x0 DUP7 DUP2 MSTORE PUSH1 0x20 ADD SWAP1 DUP2 MSTORE PUSH1 0x20 ADD PUSH1 0x0 KECCAK256 SWAP1 POP PUSH1 0x0 DUP2 PUSH1 0x5 ADD SLOAD EQ ISZERO PUSH2 0x1422 JUMPI DUP3 SWAP2 POP POP PUSH2 0x14C5 JUMP JUMPDEST PUSH2 0x2710 DUP1 DUP3 PUSH1 0x2 ADD DUP7 DUP2 SLOAD DUP2 LT PUSH2 0x143C JUMPI PUSH2 0x143B PUSH2 0x382B JUMP JUMPDEST JUMPDEST SWAP1 PUSH1 0x0 MSTORE PUSH1 0x20 PUSH1 0x0 KECCAK256 ADD SLOAD DUP6 PUSH2 0x1452 SWAP2 SWAP1 PUSH2 0x34BE JUMP JUMPDEST PUSH2 0x2710 DUP7 DUP6 PUSH1 0x5 ADD SLOAD PUSH2 0x1465 SWAP2 SWAP1 PUSH2 0x34BE JUMP JUMPDEST PUSH2 0x2710 PUSH2 0x1472 SWAP2 SWAP1 PUSH2 0x3545 JUMP JUMPDEST PUSH2 0x147C SWAP2 SWAP1 PUSH2 0x3514 JUMP JUMPDEST PUSH2 0x1486 SWAP2 SWAP1 PUSH2 0x3545 JUMP JUMPDEST DUP4 PUSH1 0x1 ADD SLOAD PUSH2 0x2710 PUSH2 0x1498 SWAP2 SWAP1 PUSH2 0x359F JUMP JUMPDEST DUP7 PUSH2 0x14A3 SWAP2 SWAP1 PUSH2 0x3545 JUMP JUMPDEST PUSH2 0x14AD SWAP2 SWAP1 PUSH2 0x3545 JUMP JUMPDEST PUSH2 0x14B7 SWAP2 SWAP1 PUSH2 0x3514 JUMP JUMPDEST PUSH2 0x14C1 SWAP2 SWAP1 PUSH2 0x3514 JUMP JUMPDEST SWAP2 POP POP JUMPDEST SWAP4 SWAP3 POP POP POP JUMP JUMPDEST PUSH1 0x60 PUSH1 0x1 DUP1 SLOAD PUSH2 0x14DB SWAP1 PUSH2 0x3693 JUMP JUMPDEST DUP1 PUSH1 0x1F ADD PUSH1 0x20 DUP1 SWAP2 DIV MUL PUSH1 0x20 ADD PUSH1 0x40 MLOAD SWAP1 DUP2 ADD PUSH1 0x40 MSTORE DUP1 SWAP3 SWAP2 SWAP1 DUP2 DUP2 MSTORE PUSH1 0x20 ADD DUP3 DUP1 SLOAD PUSH2 0x1507 SWAP1 PUSH2 0x3693 JUMP JUMPDEST DUP1 ISZERO PUSH2 0x1554 JUMPI DUP1 PUSH1 0x1F LT PUSH2 0x1529 JUMPI PUSH2 0x100 DUP1 DUP4 SLOAD DIV MUL DUP4 MSTORE SWAP2 PUSH1 0x20 ADD SWAP2 PUSH2 0x1554 JUMP JUMPDEST DUP3 ADD SWAP2 SWAP1 PUSH1 0x0 MSTORE PUSH1 0x20 PUSH1 0x0 KECCAK256 SWAP1 JUMPDEST DUP2 SLOAD DUP2 MSTORE SWAP1 PUSH1 0x1 ADD SWAP1 PUSH1 0x20 ADD DUP1 DUP4 GT PUSH2 0x1537 JUMPI DUP3 SWAP1 SUB PUSH1 0x1F AND DUP3 ADD SWAP2 JUMPDEST POP POP POP POP POP SWAP1 POP SWAP1 JUMP JUMPDEST PUSH2 0x1566 PUSH2 0x1962 JUMP JUMPDEST PUSH20 0xFFFFFFFFFFFFFFFFFFFFFFFFFFFFFFFFFFFFFFFF AND DUP3 PUSH20 0xFFFFFFFFFFFFFFFFFFFFFFFFFFFFFFFFFFFFFFFF AND EQ ISZERO PUSH2 0x15D4 JUMPI PUSH1 0x40 MLOAD PUSH32 0x8C379A000000000000000000000000000000000000000000000000000000000 DUP2 MSTORE PUSH1 0x4 ADD PUSH2 0x15CB SWAP1 PUSH2 0x3173 JUMP JUMPDEST PUSH1 0x40 MLOAD DUP1 SWAP2 SUB SWAP1 REVERT JUMPDEST DUP1 PUSH1 0x5 PUSH1 0x0 PUSH2 0x15E1 PUSH2 0x1962 JUMP JUMPDEST PUSH20 0xFFFFFFFFFFFFFFFFFFFFFFFFFFFFFFFFFFFFFFFF AND PUSH20 0xFFFFFFFFFFFFFFFFFFFFFFFFFFFFFFFFFFFFFFFF AND DUP2 MSTORE PUSH1 0x20 ADD SWAP1 DUP2 MSTORE PUSH1 0x20 ADD PUSH1 0x0 KECCAK256 PUSH1 0x0 DUP5 PUSH20 0xFFFFFFFFFFFFFFFFFFFFFFFFFFFFFFFFFFFFFFFF AND PUSH20 0xFFFFFFFFFFFFFFFFFFFFFFFFFFFFFFFFFFFFFFFF AND DUP2 MSTORE PUSH1 0x20 ADD SWAP1 DUP2 MSTORE PUSH1 0x20 ADD PUSH1 0x0 KECCAK256 PUSH1 0x0 PUSH2 0x100 EXP DUP2 SLOAD DUP2 PUSH1 0xFF MUL NOT AND SWAP1 DUP4 ISZERO ISZERO MUL OR SWAP1 SSTORE POP DUP2 PUSH20 0xFFFFFFFFFFFFFFFFFFFFFFFFFFFFFFFFFFFFFFFF AND PUSH2 0x168E PUSH2 0x1962 JUMP JUMPDEST PUSH20 0xFFFFFFFFFFFFFFFFFFFFFFFFFFFFFFFFFFFFFFFF AND PUSH32 0x17307EAB39AB6107E8899845AD3D59BD9653F200F220920489CA2B5937696C31 DUP4 PUSH1 0x40 MLOAD PUSH2 0x16D3 SWAP2 SWAP1 PUSH2 0x303F JUMP JUMPDEST PUSH1 0x40 MLOAD DUP1 SWAP2 SUB SWAP1 LOG3 POP POP JUMP JUMPDEST PUSH2 0x16F0 PUSH2 0x16EA PUSH2 0x1962 JUMP JUMPDEST DUP4 PUSH2 0x1D13 JUMP JUMPDEST PUSH2 0x172F JUMPI PUSH1 0x40 MLOAD PUSH32 0x8C379A000000000000000000000000000000000000000000000000000000000 DUP2 MSTORE PUSH1 0x4 ADD PUSH2 0x1726 SWAP1 PUSH2 0x3373 JUMP JUMPDEST PUSH1 0x40 MLOAD DUP1 SWAP2 SUB SWAP1 REVERT JUMPDEST PUSH2 0x173B DUP5 DUP5 DUP5 DUP5 PUSH2 0x204D JUMP JUMPDEST POP POP POP POP JUMP JUMPDEST PUSH1 0x60 PUSH2 0x174C DUP3 PUSH2 0x18F6 JUMP JUMPDEST PUSH2 0x178B JUMPI PUSH1 0x40 MLOAD PUSH32 0x8C379A000000000000000000000000000000000000000000000000000000000 DUP2 MSTORE PUSH1 0x4 ADD PUSH2 0x1782 SWAP1 PUSH2 0x32F3 JUMP JUMPDEST PUSH1 0x40 MLOAD DUP1 SWAP2 SUB SWAP1 REVERT JUMPDEST PUSH1 0x0 PUSH2 0x1795 PUSH2 0x20A9 JUMP JUMPDEST SWAP1 POP PUSH1 0x0 DUP2 MLOAD GT PUSH2 0x17B5 JUMPI PUSH1 0x40 MLOAD DUP1 PUSH1 0x20 ADD PUSH1 0x40 MSTORE DUP1 PUSH1 0x0 DUP2 MSTORE POP PUSH2 0x17E0 JUMP JUMPDEST DUP1 PUSH2 0x17BF DUP5 PUSH2 0x20C0 JUMP JUMPDEST PUSH1 0x40 MLOAD PUSH1 0x20 ADD PUSH2 0x17D0 SWAP3 SWAP2 SWAP1 PUSH2 0x2F2A JUMP JUMPDEST PUSH1 0x40 MLOAD PUSH1 0x20 DUP2 DUP4 SUB SUB DUP2 MSTORE SWAP1 PUSH1 0x40 MSTORE JUMPDEST SWAP2 POP POP SWAP2 SWAP1 POP JUMP JUMPDEST PUSH1 0x0 PUSH1 0x5 PUSH1 0x0 DUP5 PUSH20 0xFFFFFFFFFFFFFFFFFFFFFFFFFFFFFFFFFFFFFFFF AND PUSH20 0xFFFFFFFFFFFFFFFFFFFFFFFFFFFFFFFFFFFFFFFF AND DUP2 MSTORE PUSH1 0x20 ADD SWAP1 DUP2 MSTORE PUSH1 0x20 ADD PUSH1 0x0 KECCAK256 PUSH1 0x0 DUP4 PUSH20 0xFFFFFFFFFFFFFFFFFFFFFFFFFFFFFFFFFFFFFFFF AND PUSH20 0xFFFFFFFFFFFFFFFFFFFFFFFFFFFFFFFFFFFFFFFF AND DUP2 MSTORE PUSH1 0x20 ADD SWAP1 DUP2 MSTORE PUSH1 0x20 ADD PUSH1 0x0 KECCAK256 PUSH1 0x0 SWAP1 SLOAD SWAP1 PUSH2 0x100 EXP SWAP1 DIV PUSH1 0xFF AND SWAP1 POP SWAP3 SWAP2 POP POP JUMP JUMPDEST PUSH2 0x1888 CALLER DUP4 DUP4 CALLVALUE PUSH2 0x1A23 JUMP JUMPDEST POP POP JUMP JUMPDEST PUSH1 0x0 PUSH32 0x1FFC9A700000000000000000000000000000000000000000000000000000000 PUSH28 0xFFFFFFFFFFFFFFFFFFFFFFFFFFFFFFFFFFFFFFFFFFFFFFFFFFFFFFFF NOT AND DUP3 PUSH28 0xFFFFFFFFFFFFFFFFFFFFFFFFFFFFFFFFFFFFFFFFFFFFFFFFFFFFFFFF NOT AND EQ SWAP1 POP SWAP2 SWAP1 POP JUMP JUMPDEST PUSH1 0x0 DUP1 PUSH20 0xFFFFFFFFFFFFFFFFFFFFFFFFFFFFFFFFFFFFFFFF AND PUSH1 0x2 PUSH1 0x0 DUP5 DUP2 MSTORE PUSH1 0x20 ADD SWAP1 DUP2 MSTORE PUSH1 0x20 ADD PUSH1 0x0 KECCAK256 PUSH1 0x0 SWAP1 SLOAD SWAP1 PUSH2 0x100 EXP SWAP1 DIV PUSH20 0xFFFFFFFFFFFFFFFFFFFFFFFFFFFFFFFFFFFFFFFF AND PUSH20 0xFFFFFFFFFFFFFFFFFFFFFFFFFFFFFFFFFFFFFFFF AND EQ ISZERO SWAP1 POP SWAP2 SWAP1 POP JUMP JUMPDEST PUSH1 0x0 CALLER SWAP1 POP SWAP1 JUMP JUMPDEST DUP2 PUSH1 0x4 PUSH1 0x0 DUP4 DUP2 MSTORE PUSH1 0x20 ADD SWAP1 DUP2 MSTORE PUSH1 0x20 ADD PUSH1 0x0 KECCAK256 PUSH1 0x0 PUSH2 0x100 EXP DUP2 SLOAD DUP2 PUSH20 0xFFFFFFFFFFFFFFFFFFFFFFFFFFFFFFFFFFFFFFFF MUL NOT AND SWAP1 DUP4 PUSH20 0xFFFFFFFFFFFFFFFFFFFFFFFFFFFFFFFFFFFFFFFF AND MUL OR SWAP1 SSTORE POP DUP1 DUP3 PUSH20 0xFFFFFFFFFFFFFFFFFFFFFFFFFFFFFFFFFFFFFFFF AND PUSH2 0x19DD DUP4 PUSH2 0xFE7 JUMP JUMPDEST PUSH20 0xFFFFFFFFFFFFFFFFFFFFFFFFFFFFFFFFFFFFFFFF AND PUSH32 0x8C5BE1E5EBEC7D5BD14F71427D1E84F3DD0314C0F7B2291E5B200AC8C7C3B925 PUSH1 0x40 MLOAD PUSH1 0x40 MLOAD DUP1 SWAP2 SUB SWAP1 LOG4 POP POP JUMP JUMPDEST DUP2 PUSH1 0x8 PUSH1 0x0 DUP6 DUP2 MSTORE PUSH1 0x20 ADD SWAP1 DUP2 MSTORE PUSH1 0x20 ADD PUSH1 0x0 KECCAK256 PUSH1 0x4 ADD SLOAD GT PUSH2 0x1A7B JUMPI PUSH1 0x40 MLOAD PUSH32 0x8C379A000000000000000000000000000000000000000000000000000000000 DUP2 MSTORE PUSH1 0x4 ADD PUSH2 0x1A72 SWAP1 PUSH2 0x33B3 JUMP JUMPDEST PUSH1 0x40 MLOAD DUP1 SWAP2 SUB SWAP1 REVERT JUMPDEST PUSH2 0x1A87 DUP5 PUSH1 0x6 SLOAD PUSH2 0x2221 JUMP JUMPDEST PUSH1 0x0 PUSH2 0x1A94 DUP5 DUP5 DUP5 PUSH2 0x139B JUMP JUMPDEST SWAP1 POP PUSH1 0x40 MLOAD DUP1 PUSH1 0x60 ADD PUSH1 0x40 MSTORE DUP1 DUP6 DUP2 MSTORE PUSH1 0x20 ADD DUP5 DUP2 MSTORE PUSH1 0x20 ADD DUP3 DUP2 MSTORE POP PUSH1 0x7 PUSH1 0x0 PUSH1 0x6 SLOAD DUP2 MSTORE PUSH1 0x20 ADD SWAP1 DUP2 MSTORE PUSH1 0x20 ADD PUSH1 0x0 KECCAK256 PUSH1 0x0 DUP3 ADD MLOAD DUP2 PUSH1 0x0 ADD SSTORE PUSH1 0x20 DUP3 ADD MLOAD DUP2 PUSH1 0x1 ADD SSTORE PUSH1 0x40 DUP3 ADD MLOAD DUP2 PUSH1 0x2 ADD SSTORE SWAP1 POP POP DUP2 PUSH1 0x8 PUSH1 0x0 DUP7 DUP2 MSTORE PUSH1 0x20 ADD SWAP1 DUP2 MSTORE PUSH1 0x20 ADD PUSH1 0x0 KECCAK256 PUSH1 0x5 ADD PUSH1 0x0 DUP3 DUP3 SLOAD PUSH2 0x1B0D SWAP2 SWAP1 PUSH2 0x34BE JUMP JUMPDEST SWAP3 POP POP DUP2 SWAP1 SSTORE POP DUP2 PUSH1 0x8 PUSH1 0x0 DUP7 DUP2 MSTORE PUSH1 0x20 ADD SWAP1 DUP2 MSTORE PUSH1 0x20 ADD PUSH1 0x0 KECCAK256 PUSH1 0x2 ADD DUP5 DUP2 SLOAD DUP2 LT PUSH2 0x1B3D JUMPI PUSH2 0x1B3C PUSH2 0x382B JUMP JUMPDEST JUMPDEST SWAP1 PUSH1 0x0 MSTORE PUSH1 0x20 PUSH1 0x0 KECCAK256 ADD PUSH1 0x0 DUP3 DUP3 SLOAD PUSH2 0x1B56 SWAP2 SWAP1 PUSH2 0x34BE JUMP JUMPDEST SWAP3 POP POP DUP2 SWAP1 SSTORE POP DUP1 PUSH1 0x8 PUSH1 0x0 DUP7 DUP2 MSTORE PUSH1 0x20 ADD SWAP1 DUP2 MSTORE PUSH1 0x20 ADD PUSH1 0x0 KECCAK256 PUSH1 0x3 ADD DUP5 DUP2 SLOAD DUP2 LT PUSH2 0x1B86 JUMPI PUSH2 0x1B85 PUSH2 0x382B JUMP JUMPDEST JUMPDEST SWAP1 PUSH1 0x0 MSTORE PUSH1 0x20 PUSH1 0x0 KECCAK256 ADD PUSH1 0x0 DUP3 DUP3 SLOAD PUSH2 0x1B9F SWAP2 SWAP1 PUSH2 0x34BE JUMP JUMPDEST SWAP3 POP POP DUP2 SWAP1 SSTORE POP PUSH32 0x8FC9C4F9D6B36166B3DC0BCC4428F588AC64079E040B0623594709CCACEEAC04 PUSH1 0x6 SLOAD DUP7 DUP7 PUSH1 0x40 MLOAD PUSH2 0x1BDB SWAP4 SWAP3 SWAP2 SWAP1 PUSH2 0x33EE JUMP JUMPDEST PUSH1 0x40 MLOAD DUP1 SWAP2 SUB SWAP1 LOG1 PUSH1 0x6 PUSH1 0x0 DUP2 SLOAD DUP1 SWAP3 SWAP2 SWAP1 PUSH2 0x1BF6 SWAP1 PUSH2 0x36F6 JUMP JUMPDEST SWAP2 SWAP1 POP SSTORE POP POP POP POP POP POP JUMP JUMPDEST PUSH1 0x0 PUSH2 0x1C0D DUP3 PUSH2 0xFE7 JUMP JUMPDEST SWAP1 POP PUSH2 0x1C1B DUP2 PUSH1 0x0 DUP5 PUSH2 0x23EF JUMP JUMPDEST PUSH2 0x1C26 PUSH1 0x0 DUP4 PUSH2 0x196A JUMP JUMPDEST PUSH1 0x1 PUSH1 0x3 PUSH1 0x0 DUP4 PUSH20 0xFFFFFFFFFFFFFFFFFFFFFFFFFFFFFFFFFFFFFFFF AND PUSH20 0xFFFFFFFFFFFFFFFFFFFFFFFFFFFFFFFFFFFFFFFF AND DUP2 MSTORE PUSH1 0x20 ADD SWAP1 DUP2 MSTORE PUSH1 0x20 ADD PUSH1 0x0 KECCAK256 PUSH1 0x0 DUP3 DUP3 SLOAD PUSH2 0x1C76 SWAP2 SWAP1 PUSH2 0x359F JUMP JUMPDEST SWAP3 POP POP DUP2 SWAP1 SSTORE POP PUSH1 0x2 PUSH1 0x0 DUP4 DUP2 MSTORE PUSH1 0x20 ADD SWAP1 DUP2 MSTORE PUSH1 0x20 ADD PUSH1 0x0 KECCAK256 PUSH1 0x0 PUSH2 0x100 EXP DUP2 SLOAD SWAP1 PUSH20 0xFFFFFFFFFFFFFFFFFFFFFFFFFFFFFFFFFFFFFFFF MUL NOT AND SWAP1 SSTORE DUP2 PUSH1 0x0 PUSH20 0xFFFFFFFFFFFFFFFFFFFFFFFFFFFFFFFFFFFFFFFF AND DUP3 PUSH20 0xFFFFFFFFFFFFFFFFFFFFFFFFFFFFFFFFFFFFFFFF AND PUSH32 0xDDF252AD1BE2C89B69C2B068FC378DAA952BA7F163C4A11628F55A4DF523B3EF PUSH1 0x40 MLOAD PUSH1 0x40 MLOAD DUP1 SWAP2 SUB SWAP1 LOG4 POP POP JUMP JUMPDEST PUSH1 0x0 PUSH2 0x1D1E DUP3 PUSH2 0x18F6 JUMP JUMPDEST PUSH2 0x1D5D JUMPI PUSH1 0x40 MLOAD PUSH32 0x8C379A000000000000000000000000000000000000000000000000000000000 DUP2 MSTORE PUSH1 0x4 ADD PUSH2 0x1D54 SWAP1 PUSH2 0x31D3 JUMP JUMPDEST PUSH1 0x40 MLOAD DUP1 SWAP2 SUB SWAP1 REVERT JUMPDEST PUSH1 0x0 PUSH2 0x1D68 DUP4 PUSH2 0xFE7 JUMP JUMPDEST SWAP1 POP DUP1 PUSH20 0xFFFFFFFFFFFFFFFFFFFFFFFFFFFFFFFFFFFFFFFF AND DUP5 PUSH20 0xFFFFFFFFFFFFFFFFFFFFFFFFFFFFFFFFFFFFFFFF AND EQ DUP1 PUSH2 0x1DD7 JUMPI POP DUP4 PUSH20 0xFFFFFFFFFFFFFFFFFFFFFFFFFFFFFFFFFFFFFFFF AND PUSH2 0x1DBF DUP5 PUSH2 0x6DB JUMP JUMPDEST PUSH20 0xFFFFFFFFFFFFFFFFFFFFFFFFFFFFFFFFFFFFFFFF AND EQ JUMPDEST DUP1 PUSH2 0x1DE8 JUMPI POP PUSH2 0x1DE7 DUP2 DUP6 PUSH2 0x17E8 JUMP JUMPDEST JUMPDEST SWAP2 POP POP SWAP3 SWAP2 POP POP JUMP JUMPDEST DUP3 PUSH20 0xFFFFFFFFFFFFFFFFFFFFFFFFFFFFFFFFFFFFFFFF AND PUSH2 0x1E11 DUP3 PUSH2 0xFE7 JUMP JUMPDEST PUSH20 0xFFFFFFFFFFFFFFFFFFFFFFFFFFFFFFFFFFFFFFFF AND EQ PUSH2 0x1E67 JUMPI PUSH1 0x40 MLOAD PUSH32 0x8C379A000000000000000000000000000000000000000000000000000000000 DUP2 MSTORE PUSH1 0x4 ADD PUSH2 0x1E5E SWAP1 PUSH2 0x32D3 JUMP JUMPDEST PUSH1 0x40 MLOAD DUP1 SWAP2 SUB SWAP1 REVERT JUMPDEST PUSH1 0x0 PUSH20 0xFFFFFFFFFFFFFFFFFFFFFFFFFFFFFFFFFFFFFFFF AND DUP3 PUSH20 0xFFFFFFFFFFFFFFFFFFFFFFFFFFFFFFFFFFFFFFFF AND EQ ISZERO PUSH2 0x1ED7 JUMPI PUSH1 0x40 MLOAD PUSH32 0x8C379A000000000000000000000000000000000000000000000000000000000 DUP2 MSTORE PUSH1 0x4 ADD PUSH2 0x1ECE SWAP1 PUSH2 0x3153 JUMP JUMPDEST PUSH1 0x40 MLOAD DUP1 SWAP2 SUB SWAP1 REVERT JUMPDEST PUSH2 0x1EE2 DUP4 DUP4 DUP4 PUSH2 0x23EF JUMP JUMPDEST PUSH2 0x1EED PUSH1 0x0 DUP3 PUSH2 0x196A JUMP JUMPDEST PUSH1 0x1 PUSH1 0x3 PUSH1 0x0 DUP6 PUSH20 0xFFFFFFFFFFFFFFFFFFFFFFFFFFFFFFFFFFFFFFFF AND PUSH20 0xFFFFFFFFFFFFFFFFFFFFFFFFFFFFFFFFFFFFFFFF AND DUP2 MSTORE PUSH1 0x20 ADD SWAP1 DUP2 MSTORE PUSH1 0x20 ADD PUSH1 0x0 KECCAK256 PUSH1 0x0 DUP3 DUP3 SLOAD PUSH2 0x1F3D SWAP2 SWAP1 PUSH2 0x359F JUMP JUMPDEST SWAP3 POP POP DUP2 SWAP1 SSTORE POP PUSH1 0x1 PUSH1 0x3 PUSH1 0x0 DUP5 PUSH20 0xFFFFFFFFFFFFFFFFFFFFFFFFFFFFFFFFFFFFFFFF AND PUSH20 0xFFFFFFFFFFFFFFFFFFFFFFFFFFFFFFFFFFFFFFFF AND DUP2 MSTORE PUSH1 0x20 ADD SWAP1 DUP2 MSTORE PUSH1 0x20 ADD PUSH1 0x0 KECCAK256 PUSH1 0x0 DUP3 DUP3 SLOAD PUSH2 0x1F94 SWAP2 SWAP1 PUSH2 0x34BE JUMP JUMPDEST SWAP3 POP POP DUP2 SWAP1 SSTORE POP DUP2 PUSH1 0x2 PUSH1 0x0 DUP4 DUP2 MSTORE PUSH1 0x20 ADD SWAP1 DUP2 MSTORE PUSH1 0x20 ADD PUSH1 0x0 KECCAK256 PUSH1 0x0 PUSH2 0x100 EXP DUP2 SLOAD DUP2 PUSH20 0xFFFFFFFFFFFFFFFFFFFFFFFFFFFFFFFFFFFFFFFF MUL NOT AND SWAP1 DUP4 PUSH20 0xFFFFFFFFFFFFFFFFFFFFFFFFFFFFFFFFFFFFFFFF AND MUL OR SWAP1 SSTORE POP DUP1 DUP3 PUSH20 0xFFFFFFFFFFFFFFFFFFFFFFFFFFFFFFFFFFFFFFFF AND DUP5 PUSH20 0xFFFFFFFFFFFFFFFFFFFFFFFFFFFFFFFFFFFFFFFF AND PUSH32 0xDDF252AD1BE2C89B69C2B068FC378DAA952BA7F163C4A11628F55A4DF523B3EF PUSH1 0x40 MLOAD PUSH1 0x40 MLOAD DUP1 SWAP2 SUB SWAP1 LOG4 POP POP POP JUMP JUMPDEST PUSH2 0x2058 DUP5 DUP5 DUP5 PUSH2 0x1DF1 JUMP JUMPDEST PUSH2 0x2064 DUP5 DUP5 DUP5 DUP5 PUSH2 0x23F4 JUMP JUMPDEST PUSH2 0x20A3 JUMPI PUSH1 0x40 MLOAD PUSH32 0x8C379A000000000000000000000000000000000000000000000000000000000 DUP2 MSTORE PUSH1 0x4 ADD PUSH2 0x209A SWAP1 PUSH2 0x30D3 JUMP JUMPDEST PUSH1 0x40 MLOAD DUP1 SWAP2 SUB SWAP1 REVERT JUMPDEST POP POP POP POP JUMP JUMPDEST PUSH1 0x60 PUSH1 0x40 MLOAD DUP1 PUSH1 0x20 ADD PUSH1 0x40 MSTORE DUP1 PUSH1 0x0 DUP2 MSTORE POP SWAP1 POP SWAP1 JUMP JUMPDEST PUSH1 0x60 PUSH1 0x0 DUP3 EQ ISZERO PUSH2 0x2108 JUMPI PUSH1 0x40 MLOAD DUP1 PUSH1 0x40 ADD PUSH1 0x40 MSTORE DUP1 PUSH1 0x1 DUP2 MSTORE PUSH1 0x20 ADD PUSH32 0x3000000000000000000000000000000000000000000000000000000000000000 DUP2 MSTORE POP SWAP1 POP PUSH2 0x221C JUMP JUMPDEST PUSH1 0x0 DUP3 SWAP1 POP PUSH1 0x0 JUMPDEST PUSH1 0x0 DUP3 EQ PUSH2 0x213A JUMPI DUP1 DUP1 PUSH2 0x2123 SWAP1 PUSH2 0x36F6 JUMP JUMPDEST SWAP2 POP POP PUSH1 0xA DUP3 PUSH2 0x2133 SWAP2 SWAP1 PUSH2 0x3514 JUMP JUMPDEST SWAP2 POP PUSH2 0x2110 JUMP JUMPDEST PUSH1 0x0 DUP2 PUSH8 0xFFFFFFFFFFFFFFFF DUP2 GT ISZERO PUSH2 0x2156 JUMPI PUSH2 0x2155 PUSH2 0x385A JUMP JUMPDEST JUMPDEST PUSH1 0x40 MLOAD SWAP1 DUP1 DUP3 MSTORE DUP1 PUSH1 0x1F ADD PUSH1 0x1F NOT AND PUSH1 0x20 ADD DUP3 ADD PUSH1 0x40 MSTORE DUP1 ISZERO PUSH2 0x2188 JUMPI DUP2 PUSH1 0x20 ADD PUSH1 0x1 DUP3 MUL DUP1 CALLDATASIZE DUP4 CALLDATACOPY DUP1 DUP3 ADD SWAP2 POP POP SWAP1 POP JUMPDEST POP SWAP1 POP JUMPDEST PUSH1 0x0 DUP6 EQ PUSH2 0x2215 JUMPI PUSH1 0x1 DUP3 PUSH2 0x21A1 SWAP2 SWAP1 PUSH2 0x359F JUMP JUMPDEST SWAP2 POP PUSH1 0xA DUP6 PUSH2 0x21B0 SWAP2 SWAP1 PUSH2 0x376D JUMP JUMPDEST PUSH1 0x30 PUSH2 0x21BC SWAP2 SWAP1 PUSH2 0x34BE JUMP JUMPDEST PUSH1 0xF8 SHL DUP2 DUP4 DUP2 MLOAD DUP2 LT PUSH2 0x21D2 JUMPI PUSH2 0x21D1 PUSH2 0x382B JUMP JUMPDEST JUMPDEST PUSH1 0x20 ADD ADD SWAP1 PUSH31 0xFFFFFFFFFFFFFFFFFFFFFFFFFFFFFFFFFFFFFFFFFFFFFFFFFFFFFFFFFFFFFF NOT AND SWAP1 DUP2 PUSH1 0x0 BYTE SWAP1 MSTORE8 POP PUSH1 0xA DUP6 PUSH2 0x220E SWAP2 SWAP1 PUSH2 0x3514 JUMP JUMPDEST SWAP5 POP PUSH2 0x218C JUMP JUMPDEST DUP1 SWAP4 POP POP POP POP JUMPDEST SWAP2 SWAP1 POP JUMP JUMPDEST PUSH1 0x0 PUSH20 0xFFFFFFFFFFFFFFFFFFFFFFFFFFFFFFFFFFFFFFFF AND DUP3 PUSH20 0xFFFFFFFFFFFFFFFFFFFFFFFFFFFFFFFFFFFFFFFF AND EQ ISZERO PUSH2 0x2291 JUMPI PUSH1 0x40 MLOAD PUSH32 0x8C379A000000000000000000000000000000000000000000000000000000000 DUP2 MSTORE PUSH1 0x4 ADD PUSH2 0x2288 SWAP1 PUSH2 0x3273 JUMP JUMPDEST PUSH1 0x40 MLOAD DUP1 SWAP2 SUB SWAP1 REVERT JUMPDEST PUSH2 0x229A DUP2 PUSH2 0x18F6 JUMP JUMPDEST ISZERO PUSH2 0x22DA JUMPI PUSH1 0x40 MLOAD PUSH32 0x8C379A000000000000000000000000000000000000000000000000000000000 DUP2 MSTORE PUSH1 0x4 ADD PUSH2 0x22D1 SWAP1 PUSH2 0x3113 JUMP JUMPDEST PUSH1 0x40 MLOAD DUP1 SWAP2 SUB SWAP1 REVERT JUMPDEST PUSH2 0x22E6 PUSH1 0x0 DUP4 DUP4 PUSH2 0x23EF JUMP JUMPDEST PUSH1 0x1 PUSH1 0x3 PUSH1 0x0 DUP5 PUSH20 0xFFFFFFFFFFFFFFFFFFFFFFFFFFFFFFFFFFFFFFFF AND PUSH20 0xFFFFFFFFFFFFFFFFFFFFFFFFFFFFFFFFFFFFFFFF AND DUP2 MSTORE PUSH1 0x20 ADD SWAP1 DUP2 MSTORE PUSH1 0x20 ADD PUSH1 0x0 KECCAK256 PUSH1 0x0 DUP3 DUP3 SLOAD PUSH2 0x2336 SWAP2 SWAP1 PUSH2 0x34BE JUMP JUMPDEST SWAP3 POP POP DUP2 SWAP1 SSTORE POP DUP2 PUSH1 0x2 PUSH1 0x0 DUP4 DUP2 MSTORE PUSH1 0x20 ADD SWAP1 DUP2 MSTORE PUSH1 0x20 ADD PUSH1 0x0 KECCAK256 PUSH1 0x0 PUSH2 0x100 EXP DUP2 SLOAD DUP2 PUSH20 0xFFFFFFFFFFFFFFFFFFFFFFFFFFFFFFFFFFFFFFFF MUL NOT AND SWAP1 DUP4 PUSH20 0xFFFFFFFFFFFFFFFFFFFFFFFFFFFFFFFFFFFFFFFF AND MUL OR SWAP1 SSTORE POP DUP1 DUP3 PUSH20 0xFFFFFFFFFFFFFFFFFFFFFFFFFFFFFFFFFFFFFFFF AND PUSH1 0x0 PUSH20 0xFFFFFFFFFFFFFFFFFFFFFFFFFFFFFFFFFFFFFFFF AND PUSH32 0xDDF252AD1BE2C89B69C2B068FC378DAA952BA7F163C4A11628F55A4DF523B3EF PUSH1 0x40 MLOAD PUSH1 0x40 MLOAD DUP1 SWAP2 SUB SWAP1 LOG4 POP POP JUMP JUMPDEST POP POP POP JUMP JUMPDEST PUSH1 0x0 PUSH2 0x2415 DUP5 PUSH20 0xFFFFFFFFFFFFFFFFFFFFFFFFFFFFFFFFFFFFFFFF AND PUSH2 0x258B JUMP JUMPDEST ISZERO PUSH2 0x257E JUMPI DUP4 PUSH20 0xFFFFFFFFFFFFFFFFFFFFFFFFFFFFFFFFFFFFFFFF AND PUSH4 0x150B7A02 PUSH2 0x243E PUSH2 0x1962 JUMP JUMPDEST DUP8 DUP7 DUP7 PUSH1 0x40 MLOAD DUP6 PUSH4 0xFFFFFFFF AND PUSH1 0xE0 SHL DUP2 MSTORE PUSH1 0x4 ADD PUSH2 0x2460 SWAP5 SWAP4 SWAP3 SWAP2 SWAP1 PUSH2 0x2F69 JUMP JUMPDEST PUSH1 0x20 PUSH1 0x40 MLOAD DUP1 DUP4 SUB DUP2 PUSH1 0x0 DUP8 DUP1 EXTCODESIZE ISZERO DUP1 ISZERO PUSH2 0x247A JUMPI PUSH1 0x0 DUP1 REVERT JUMPDEST POP GAS CALL SWAP3 POP POP POP DUP1 ISZERO PUSH2 0x24AB JUMPI POP PUSH1 0x40 MLOAD RETURNDATASIZE PUSH1 0x1F NOT PUSH1 0x1F DUP3 ADD AND DUP3 ADD DUP1 PUSH1 0x40 MSTORE POP DUP2 ADD SWAP1 PUSH2 0x24A8 SWAP2 SWAP1 PUSH2 0x29F9 JUMP JUMPDEST PUSH1 0x1 JUMPDEST PUSH2 0x252E JUMPI RETURNDATASIZE DUP1 PUSH1 0x0 DUP2 EQ PUSH2 0x24DB JUMPI PUSH1 0x40 MLOAD SWAP2 POP PUSH1 0x1F NOT PUSH1 0x3F RETURNDATASIZE ADD AND DUP3 ADD PUSH1 0x40 MSTORE RETURNDATASIZE DUP3 MSTORE RETURNDATASIZE PUSH1 0x0 PUSH1 0x20 DUP5 ADD RETURNDATACOPY PUSH2 0x24E0 JUMP JUMPDEST PUSH1 0x60 SWAP2 POP JUMPDEST POP PUSH1 0x0 DUP2 MLOAD EQ ISZERO PUSH2 0x2526 JUMPI PUSH1 0x40 MLOAD PUSH32 0x8C379A000000000000000000000000000000000000000000000000000000000 DUP2 MSTORE PUSH1 0x4 ADD PUSH2 0x251D SWAP1 PUSH2 0x30D3 JUMP JUMPDEST PUSH1 0x40 MLOAD DUP1 SWAP2 SUB SWAP1 REVERT JUMPDEST DUP1 MLOAD DUP2 PUSH1 0x20 ADD REVERT JUMPDEST PUSH4 0x150B7A02 PUSH1 0xE0 SHL PUSH28 0xFFFFFFFFFFFFFFFFFFFFFFFFFFFFFFFFFFFFFFFFFFFFFFFFFFFFFFFF NOT AND DUP2 PUSH28 0xFFFFFFFFFFFFFFFFFFFFFFFFFFFFFFFFFFFFFFFFFFFFFFFFFFFFFFFF NOT AND EQ SWAP2 POP POP PUSH2 0x2583 JUMP JUMPDEST PUSH1 0x1 SWAP1 POP JUMPDEST SWAP5 SWAP4 POP POP POP POP JUMP JUMPDEST PUSH1 0x0 DUP1 DUP3 EXTCODESIZE SWAP1 POP PUSH1 0x0 DUP2 GT SWAP2 POP POP SWAP2 SWAP1 POP JUMP JUMPDEST DUP3 DUP1 SLOAD DUP3 DUP3 SSTORE SWAP1 PUSH1 0x0 MSTORE PUSH1 0x20 PUSH1 0x0 KECCAK256 SWAP1 DUP2 ADD SWAP3 DUP3 ISZERO PUSH2 0x25DA JUMPI SWAP2 PUSH1 0x20 MUL DUP3 ADD JUMPDEST DUP3 DUP2 GT ISZERO PUSH2 0x25D9 JUMPI DUP3 MLOAD DUP3 SSTORE SWAP2 PUSH1 0x20 ADD SWAP2 SWAP1 PUSH1 0x1 ADD SWAP1 PUSH2 0x25BE JUMP JUMPDEST JUMPDEST POP SWAP1 POP PUSH2 0x25E7 SWAP2 SWAP1 PUSH2 0x25EB JUMP JUMPDEST POP SWAP1 JUMP JUMPDEST JUMPDEST DUP1 DUP3 GT ISZERO PUSH2 0x2604 JUMPI PUSH1 0x0 DUP2 PUSH1 0x0 SWAP1 SSTORE POP PUSH1 0x1 ADD PUSH2 0x25EC JUMP JUMPDEST POP SWAP1 JUMP JUMPDEST PUSH1 0x0 PUSH2 0x261B PUSH2 0x2616 DUP5 PUSH2 0x344A JUMP JUMPDEST PUSH2 0x3425 JUMP JUMPDEST SWAP1 POP DUP3 DUP2 MSTORE PUSH1 0x20 DUP2 ADD DUP5 DUP5 DUP5 ADD GT ISZERO PUSH2 0x2637 JUMPI PUSH2 0x2636 PUSH2 0x388E JUMP JUMPDEST JUMPDEST PUSH2 0x2642 DUP5 DUP3 DUP6 PUSH2 0x3651 JUMP JUMPDEST POP SWAP4 SWAP3 POP POP POP JUMP JUMPDEST PUSH1 0x0 DUP2 CALLDATALOAD SWAP1 POP PUSH2 0x2659 DUP2 PUSH2 0x3FB4 JUMP JUMPDEST SWAP3 SWAP2 POP POP JUMP JUMPDEST PUSH1 0x0 DUP2 CALLDATALOAD SWAP1 POP PUSH2 0x266E DUP2 PUSH2 0x3FCB JUMP JUMPDEST SWAP3 SWAP2 POP POP JUMP JUMPDEST PUSH1 0x0 DUP2 CALLDATALOAD SWAP1 POP PUSH2 0x2683 DUP2 PUSH2 0x3FE2 JUMP JUMPDEST SWAP3 SWAP2 POP POP JUMP JUMPDEST PUSH1 0x0 DUP2 CALLDATALOAD SWAP1 POP PUSH2 0x2698 DUP2 PUSH2 0x3FF9 JUMP JUMPDEST SWAP3 SWAP2 POP POP JUMP JUMPDEST PUSH1 0x0 DUP2 MLOAD SWAP1 POP PUSH2 0x26AD DUP2 PUSH2 0x3FF9 JUMP JUMPDEST SWAP3 SWAP2 POP POP JUMP JUMPDEST PUSH1 0x0 DUP3 PUSH1 0x1F DUP4 ADD SLT PUSH2 0x26C8 JUMPI PUSH2 0x26C7 PUSH2 0x3889 JUMP JUMPDEST JUMPDEST DUP2 CALLDATALOAD PUSH2 0x26D8 DUP5 DUP3 PUSH1 0x20 DUP7 ADD PUSH2 0x2608 JUMP JUMPDEST SWAP2 POP POP SWAP3 SWAP2 POP POP JUMP JUMPDEST PUSH1 0x0 DUP2 CALLDATALOAD SWAP1 POP PUSH2 0x26F0 DUP2 PUSH2 0x4010 JUMP JUMPDEST SWAP3 SWAP2 POP POP JUMP JUMPDEST PUSH1 0x0 PUSH1 0x20 DUP3 DUP5 SUB SLT ISZERO PUSH2 0x270C JUMPI PUSH2 0x270B PUSH2 0x3898 JUMP JUMPDEST JUMPDEST PUSH1 0x0 PUSH2 0x271A DUP5 DUP3 DUP6 ADD PUSH2 0x264A JUMP JUMPDEST SWAP2 POP POP SWAP3 SWAP2 POP POP JUMP JUMPDEST PUSH1 0x0 DUP1 PUSH1 0x40 DUP4 DUP6 SUB SLT ISZERO PUSH2 0x273A JUMPI PUSH2 0x2739 PUSH2 0x3898 JUMP JUMPDEST JUMPDEST PUSH1 0x0 PUSH2 0x2748 DUP6 DUP3 DUP7 ADD PUSH2 0x264A JUMP JUMPDEST SWAP3 POP POP PUSH1 0x20 PUSH2 0x2759 DUP6 DUP3 DUP7 ADD PUSH2 0x264A JUMP JUMPDEST SWAP2 POP POP SWAP3 POP SWAP3 SWAP1 POP JUMP JUMPDEST PUSH1 0x0 DUP1 PUSH1 0x0 PUSH1 0x60 DUP5 DUP7 SUB SLT ISZERO PUSH2 0x277C JUMPI PUSH2 0x277B PUSH2 0x3898 JUMP JUMPDEST JUMPDEST PUSH1 0x0 PUSH2 0x278A DUP7 DUP3 DUP8 ADD PUSH2 0x264A JUMP JUMPDEST SWAP4 POP POP PUSH1 0x20 PUSH2 0x279B DUP7 DUP3 DUP8 ADD PUSH2 0x264A JUMP JUMPDEST SWAP3 POP POP PUSH1 0x40 PUSH2 0x27AC DUP7 DUP3 DUP8 ADD PUSH2 0x26E1 JUMP JUMPDEST SWAP2 POP POP SWAP3 POP SWAP3 POP SWAP3 JUMP JUMPDEST PUSH1 0x0 DUP1 PUSH1 0x0 DUP1 PUSH1 0x80 DUP6 DUP8 SUB SLT ISZERO PUSH2 0x27D0 JUMPI PUSH2 0x27CF PUSH2 0x3898 JUMP JUMPDEST JUMPDEST PUSH1 0x0 PUSH2 0x27DE DUP8 DUP3 DUP9 ADD PUSH2 0x264A JUMP JUMPDEST SWAP5 POP POP PUSH1 0x20 PUSH2 0x27EF DUP8 DUP3 DUP9 ADD PUSH2 0x264A JUMP JUMPDEST SWAP4 POP POP PUSH1 0x40 PUSH2 0x2800 DUP8 DUP3 DUP9 ADD PUSH2 0x26E1 JUMP JUMPDEST SWAP3 POP POP PUSH1 0x60 DUP6 ADD CALLDATALOAD PUSH8 0xFFFFFFFFFFFFFFFF DUP2 GT ISZERO PUSH2 0x2821 JUMPI PUSH2 0x2820 PUSH2 0x3893 JUMP JUMPDEST JUMPDEST PUSH2 0x282D DUP8 DUP3 DUP9 ADD PUSH2 0x26B3 JUMP JUMPDEST SWAP2 POP POP SWAP3 SWAP6 SWAP2 SWAP5 POP SWAP3 POP JUMP JUMPDEST PUSH1 0x0 DUP1 PUSH1 0x40 DUP4 DUP6 SUB SLT ISZERO PUSH2 0x2850 JUMPI PUSH2 0x284F PUSH2 0x3898 JUMP JUMPDEST JUMPDEST PUSH1 0x0 PUSH2 0x285E DUP6 DUP3 DUP7 ADD PUSH2 0x264A JUMP JUMPDEST SWAP3 POP POP PUSH1 0x20 PUSH2 0x286F DUP6 DUP3 DUP7 ADD PUSH2 0x265F JUMP JUMPDEST SWAP2 POP POP SWAP3 POP SWAP3 SWAP1 POP JUMP JUMPDEST PUSH1 0x0 DUP1 PUSH1 0x40 DUP4 DUP6 SUB SLT ISZERO PUSH2 0x2890 JUMPI PUSH2 0x288F PUSH2 0x3898 JUMP JUMPDEST JUMPDEST PUSH1 0x0 PUSH2 0x289E DUP6 DUP3 DUP7 ADD PUSH2 0x264A JUMP JUMPDEST SWAP3 POP POP PUSH1 0x20 PUSH2 0x28AF DUP6 DUP3 DUP7 ADD PUSH2 0x26E1 JUMP JUMPDEST SWAP2 POP POP SWAP3 POP SWAP3 SWAP1 POP JUMP JUMPDEST PUSH1 0x0 DUP1 PUSH1 0x0 PUSH1 0x60 DUP5 DUP7 SUB SLT ISZERO PUSH2 0x28D2 JUMPI PUSH2 0x28D1 PUSH2 0x3898 JUMP JUMPDEST JUMPDEST PUSH1 0x0 PUSH2 0x28E0 DUP7 DUP3 DUP8 ADD PUSH2 0x264A JUMP JUMPDEST SWAP4 POP POP PUSH1 0x20 PUSH2 0x28F1 DUP7 DUP3 DUP8 ADD PUSH2 0x26E1 JUMP JUMPDEST SWAP3 POP POP PUSH1 0x40 PUSH2 0x2902 DUP7 DUP3 DUP8 ADD PUSH2 0x26E1 JUMP JUMPDEST SWAP2 POP POP SWAP3 POP SWAP3 POP SWAP3 JUMP JUMPDEST PUSH1 0x0 PUSH1 0x20 DUP3 DUP5 SUB SLT ISZERO PUSH2 0x2922 JUMPI PUSH2 0x2921 PUSH2 0x3898 JUMP JUMPDEST JUMPDEST PUSH1 0x0 PUSH2 0x2930 DUP5 DUP3 DUP6 ADD PUSH2 0x2674 JUMP JUMPDEST SWAP2 POP POP SWAP3 SWAP2 POP POP JUMP JUMPDEST PUSH1 0x0 DUP1 PUSH1 0x40 DUP4 DUP6 SUB SLT ISZERO PUSH2 0x2950 JUMPI PUSH2 0x294F PUSH2 0x3898 JUMP JUMPDEST JUMPDEST PUSH1 0x0 PUSH2 0x295E DUP6 DUP3 DUP7 ADD PUSH2 0x2674 JUMP JUMPDEST SWAP3 POP POP PUSH1 0x20 PUSH2 0x296F DUP6 DUP3 DUP7 ADD PUSH2 0x26E1 JUMP JUMPDEST SWAP2 POP POP SWAP3 POP SWAP3 SWAP1 POP JUMP JUMPDEST PUSH1 0x0 DUP1 PUSH1 0x0 PUSH1 0x60 DUP5 DUP7 SUB SLT ISZERO PUSH2 0x2992 JUMPI PUSH2 0x2991 PUSH2 0x3898 JUMP JUMPDEST JUMPDEST PUSH1 0x0 PUSH2 0x29A0 DUP7 DUP3 DUP8 ADD PUSH2 0x2674 JUMP JUMPDEST SWAP4 POP POP PUSH1 0x20 PUSH2 0x29B1 DUP7 DUP3 DUP8 ADD PUSH2 0x26E1 JUMP JUMPDEST SWAP3 POP POP PUSH1 0x40 PUSH2 0x29C2 DUP7 DUP3 DUP8 ADD PUSH2 0x26E1 JUMP JUMPDEST SWAP2 POP POP SWAP3 POP SWAP3 POP SWAP3 JUMP JUMPDEST PUSH1 0x0 PUSH1 0x20 DUP3 DUP5 SUB SLT ISZERO PUSH2 0x29E2 JUMPI PUSH2 0x29E1 PUSH2 0x3898 JUMP JUMPDEST JUMPDEST PUSH1 0x0 PUSH2 0x29F0 DUP5 DUP3 DUP6 ADD PUSH2 0x2689 JUMP JUMPDEST SWAP2 POP POP SWAP3 SWAP2 POP POP JUMP JUMPDEST PUSH1 0x0 PUSH1 0x20 DUP3 DUP5 SUB SLT ISZERO PUSH2 0x2A0F JUMPI PUSH2 0x2A0E PUSH2 0x3898 JUMP JUMPDEST JUMPDEST PUSH1 0x0 PUSH2 0x2A1D DUP5 DUP3 DUP6 ADD PUSH2 0x269E JUMP JUMPDEST SWAP2 POP POP SWAP3 SWAP2 POP POP JUMP JUMPDEST PUSH1 0x0 PUSH1 0x20 DUP3 DUP5 SUB SLT ISZERO PUSH2 0x2A3C JUMPI PUSH2 0x2A3B PUSH2 0x3898 JUMP JUMPDEST JUMPDEST PUSH1 0x0 PUSH2 0x2A4A DUP5 DUP3 DUP6 ADD PUSH2 0x26E1 JUMP JUMPDEST SWAP2 POP POP SWAP3 SWAP2 POP POP JUMP JUMPDEST PUSH2 0x2A5C DUP2 PUSH2 0x35D3 JUMP JUMPDEST DUP3 MSTORE POP POP JUMP JUMPDEST PUSH2 0x2A73 PUSH2 0x2A6E DUP3 PUSH2 0x35D3 JUMP JUMPDEST PUSH2 0x373F JUMP JUMPDEST DUP3 MSTORE POP POP JUMP JUMPDEST PUSH2 0x2A82 DUP2 PUSH2 0x35E5 JUMP JUMPDEST DUP3 MSTORE POP POP JUMP JUMPDEST PUSH2 0x2A91 DUP2 PUSH2 0x35F1 JUMP JUMPDEST DUP3 MSTORE POP POP JUMP JUMPDEST PUSH1 0x0 PUSH2 0x2AA2 DUP3 PUSH2 0x347B JUMP JUMPDEST PUSH2 0x2AAC DUP2 DUP6 PUSH2 0x3491 JUMP JUMPDEST SWAP4 POP PUSH2 0x2ABC DUP2 DUP6 PUSH1 0x20 DUP7 ADD PUSH2 0x3660 JUMP JUMPDEST PUSH2 0x2AC5 DUP2 PUSH2 0x389D JUMP JUMPDEST DUP5 ADD SWAP2 POP POP SWAP3 SWAP2 POP POP JUMP JUMPDEST PUSH1 0x0 PUSH2 0x2ADB DUP3 PUSH2 0x3486 JUMP JUMPDEST PUSH2 0x2AE5 DUP2 DUP6 PUSH2 0x34A2 JUMP JUMPDEST SWAP4 POP PUSH2 0x2AF5 DUP2 DUP6 PUSH1 0x20 DUP7 ADD PUSH2 0x3660 JUMP JUMPDEST PUSH2 0x2AFE DUP2 PUSH2 0x389D JUMP JUMPDEST DUP5 ADD SWAP2 POP POP SWAP3 SWAP2 POP POP JUMP JUMPDEST PUSH1 0x0 PUSH2 0x2B14 DUP3 PUSH2 0x3486 JUMP JUMPDEST PUSH2 0x2B1E DUP2 DUP6 PUSH2 0x34B3 JUMP JUMPDEST SWAP4 POP PUSH2 0x2B2E DUP2 DUP6 PUSH1 0x20 DUP7 ADD PUSH2 0x3660 JUMP JUMPDEST DUP1 DUP5 ADD SWAP2 POP POP SWAP3 SWAP2 POP POP JUMP JUMPDEST PUSH1 0x0 PUSH2 0x2B47 PUSH1 0x14 DUP4 PUSH2 0x34A2 JUMP JUMPDEST SWAP2 POP PUSH2 0x2B52 DUP3 PUSH2 0x38BB JUMP JUMPDEST PUSH1 0x20 DUP3 ADD SWAP1 POP SWAP2 SWAP1 POP JUMP JUMPDEST PUSH1 0x0 PUSH2 0x2B6A PUSH1 0x32 DUP4 PUSH2 0x34A2 JUMP JUMPDEST SWAP2 POP PUSH2 0x2B75 DUP3 PUSH2 0x38E4 JUMP JUMPDEST PUSH1 0x40 DUP3 ADD SWAP1 POP SWAP2 SWAP1 POP JUMP JUMPDEST PUSH1 0x0 PUSH2 0x2B8D PUSH1 0x1D DUP4 PUSH2 0x34A2 JUMP JUMPDEST SWAP2 POP PUSH2 0x2B98 DUP3 PUSH2 0x3933 JUMP JUMPDEST PUSH1 0x20 DUP3 ADD SWAP1 POP SWAP2 SWAP1 POP JUMP JUMPDEST PUSH1 0x0 PUSH2 0x2BB0 PUSH1 0x1C DUP4 PUSH2 0x34A2 JUMP JUMPDEST SWAP2 POP PUSH2 0x2BBB DUP3 PUSH2 0x395C JUMP JUMPDEST PUSH1 0x20 DUP3 ADD SWAP1 POP SWAP2 SWAP1 POP JUMP JUMPDEST PUSH1 0x0 PUSH2 0x2BD3 PUSH1 0x74 DUP4 PUSH2 0x34A2 JUMP JUMPDEST SWAP2 POP PUSH2 0x2BDE DUP3 PUSH2 0x3985 JUMP JUMPDEST PUSH1 0x80 DUP3 ADD SWAP1 POP SWAP2 SWAP1 POP JUMP JUMPDEST PUSH1 0x0 PUSH2 0x2BF6 PUSH1 0x24 DUP4 PUSH2 0x34A2 JUMP JUMPDEST SWAP2 POP PUSH2 0x2C01 DUP3 PUSH2 0x3A20 JUMP JUMPDEST PUSH1 0x40 DUP3 ADD SWAP1 POP SWAP2 SWAP1 POP JUMP JUMPDEST PUSH1 0x0 PUSH2 0x2C19 PUSH1 0x19 DUP4 PUSH2 0x34A2 JUMP JUMPDEST SWAP2 POP PUSH2 0x2C24 DUP3 PUSH2 0x3A6F JUMP JUMPDEST PUSH1 0x20 DUP3 ADD SWAP1 POP SWAP2 SWAP1 POP JUMP JUMPDEST PUSH1 0x0 PUSH2 0x2C3C PUSH1 0x25 DUP4 PUSH2 0x34A2 JUMP JUMPDEST SWAP2 POP PUSH2 0x2C47 DUP3 PUSH2 0x3A98 JUMP JUMPDEST PUSH1 0x40 DUP3 ADD SWAP1 POP SWAP2 SWAP1 POP JUMP JUMPDEST PUSH1 0x0 PUSH2 0x2C5F PUSH1 0x1B DUP4 PUSH2 0x34A2 JUMP JUMPDEST SWAP2 POP PUSH2 0x2C6A DUP3 PUSH2 0x3AE7 JUMP JUMPDEST PUSH1 0x20 DUP3 ADD SWAP1 POP SWAP2 SWAP1 POP JUMP JUMPDEST PUSH1 0x0 PUSH2 0x2C82 PUSH1 0x2C DUP4 PUSH2 0x34A2 JUMP JUMPDEST SWAP2 POP PUSH2 0x2C8D DUP3 PUSH2 0x3B10 JUMP JUMPDEST PUSH1 0x40 DUP3 ADD SWAP1 POP SWAP2 SWAP1 POP JUMP JUMPDEST PUSH1 0x0 PUSH2 0x2CA5 PUSH1 0x27 DUP4 PUSH2 0x34A2 JUMP JUMPDEST SWAP2 POP PUSH2 0x2CB0 DUP3 PUSH2 0x3B5F JUMP JUMPDEST PUSH1 0x40 DUP3 ADD SWAP1 POP SWAP2 SWAP1 POP JUMP JUMPDEST PUSH1 0x0 PUSH2 0x2CC8 PUSH1 0x38 DUP4 PUSH2 0x34A2 JUMP JUMPDEST SWAP2 POP PUSH2 0x2CD3 DUP3 PUSH2 0x3BAE JUMP JUMPDEST PUSH1 0x40 DUP3 ADD SWAP1 POP SWAP2 SWAP1 POP JUMP JUMPDEST PUSH1 0x0 PUSH2 0x2CEB PUSH1 0x2A DUP4 PUSH2 0x34A2 JUMP JUMPDEST SWAP2 POP PUSH2 0x2CF6 DUP3 PUSH2 0x3BFD JUMP JUMPDEST PUSH1 0x40 DUP3 ADD SWAP1 POP SWAP2 SWAP1 POP JUMP JUMPDEST PUSH1 0x0 PUSH2 0x2D0E PUSH1 0x29 DUP4 PUSH2 0x34A2 JUMP JUMPDEST SWAP2 POP PUSH2 0x2D19 DUP3 PUSH2 0x3C4C JUMP JUMPDEST PUSH1 0x40 DUP3 ADD SWAP1 POP SWAP2 SWAP1 POP JUMP JUMPDEST PUSH1 0x0 PUSH2 0x2D31 PUSH1 0x20 DUP4 PUSH2 0x34A2 JUMP JUMPDEST SWAP2 POP PUSH2 0x2D3C DUP3 PUSH2 0x3C9B JUMP JUMPDEST PUSH1 0x20 DUP3 ADD SWAP1 POP SWAP2 SWAP1 POP JUMP JUMPDEST PUSH1 0x0 PUSH2 0x2D54 PUSH1 0x2C DUP4 PUSH2 0x34A2 JUMP JUMPDEST SWAP2 POP PUSH2 0x2D5F DUP3 PUSH2 0x3CC4 JUMP JUMPDEST PUSH1 0x40 DUP3 ADD SWAP1 POP SWAP2 SWAP1 POP JUMP JUMPDEST PUSH1 0x0 PUSH2 0x2D77 PUSH1 0x22 DUP4 PUSH2 0x34A2 JUMP JUMPDEST SWAP2 POP PUSH2 0x2D82 DUP3 PUSH2 0x3D13 JUMP JUMPDEST PUSH1 0x40 DUP3 ADD SWAP1 POP SWAP2 SWAP1 POP JUMP JUMPDEST PUSH1 0x0 PUSH2 0x2D9A PUSH1 0x29 DUP4 PUSH2 0x34A2 JUMP JUMPDEST SWAP2 POP PUSH2 0x2DA5 DUP3 PUSH2 0x3D62 JUMP JUMPDEST PUSH1 0x40 DUP3 ADD SWAP1 POP SWAP2 SWAP1 POP JUMP JUMPDEST PUSH1 0x0 PUSH2 0x2DBD PUSH1 0x2F DUP4 PUSH2 0x34A2 JUMP JUMPDEST SWAP2 POP PUSH2 0x2DC8 DUP3 PUSH2 0x3DB1 JUMP JUMPDEST PUSH1 0x40 DUP3 ADD SWAP1 POP SWAP2 SWAP1 POP JUMP JUMPDEST PUSH1 0x0 PUSH2 0x2DE0 PUSH1 0x2D DUP4 PUSH2 0x34A2 JUMP JUMPDEST SWAP2 POP PUSH2 0x2DEB DUP3 PUSH2 0x3E00 JUMP JUMPDEST PUSH1 0x40 DUP3 ADD SWAP1 POP SWAP2 SWAP1 POP JUMP JUMPDEST PUSH1 0x0 PUSH2 0x2E03 PUSH1 0x21 DUP4 PUSH2 0x34A2 JUMP JUMPDEST SWAP2 POP PUSH2 0x2E0E DUP3 PUSH2 0x3E4F JUMP JUMPDEST PUSH1 0x40 DUP3 ADD SWAP1 POP SWAP2 SWAP1 POP JUMP JUMPDEST PUSH1 0x0 PUSH2 0x2E26 PUSH1 0x26 DUP4 PUSH2 0x34A2 JUMP JUMPDEST SWAP2 POP PUSH2 0x2E31 DUP3 PUSH2 0x3E9E JUMP JUMPDEST PUSH1 0x40 DUP3 ADD SWAP1 POP SWAP2 SWAP1 POP JUMP JUMPDEST PUSH1 0x0 PUSH2 0x2E49 PUSH1 0x31 DUP4 PUSH2 0x34A2 JUMP JUMPDEST SWAP2 POP PUSH2 0x2E54 DUP3 PUSH2 0x3EED JUMP JUMPDEST PUSH1 0x40 DUP3 ADD SWAP1 POP SWAP2 SWAP1 POP JUMP JUMPDEST PUSH1 0x0 PUSH2 0x2E6C PUSH1 0x28 DUP4 PUSH2 0x34A2 JUMP JUMPDEST SWAP2 POP PUSH2 0x2E77 DUP3 PUSH2 0x3F3C JUMP JUMPDEST PUSH1 0x40 DUP3 ADD SWAP1 POP SWAP2 SWAP1 POP JUMP JUMPDEST PUSH1 0x0 PUSH2 0x2E8F PUSH1 0x1A DUP4 PUSH2 0x34A2 JUMP JUMPDEST SWAP2 POP PUSH2 0x2E9A DUP3 PUSH2 0x3F8B JUMP JUMPDEST PUSH1 0x20 DUP3 ADD SWAP1 POP SWAP2 SWAP1 POP JUMP JUMPDEST PUSH2 0x2EAE DUP2 PUSH2 0x3647 JUMP JUMPDEST DUP3 MSTORE POP POP JUMP JUMPDEST PUSH2 0x2EC5 PUSH2 0x2EC0 DUP3 PUSH2 0x3647 JUMP JUMPDEST PUSH2 0x3763 JUMP JUMPDEST DUP3 MSTORE POP POP JUMP JUMPDEST PUSH1 0x0 PUSH2 0x2ED7 DUP3 DUP9 PUSH2 0x2A62 JUMP JUMPDEST PUSH1 0x14 DUP3 ADD SWAP2 POP PUSH2 0x2EE7 DUP3 DUP8 PUSH2 0x2EB4 JUMP JUMPDEST PUSH1 0x20 DUP3 ADD SWAP2 POP PUSH2 0x2EF7 DUP3 DUP7 PUSH2 0x2EB4 JUMP JUMPDEST PUSH1 0x20 DUP3 ADD SWAP2 POP PUSH2 0x2F07 DUP3 DUP6 PUSH2 0x2A62 JUMP JUMPDEST PUSH1 0x14 DUP3 ADD SWAP2 POP PUSH2 0x2F17 DUP3 DUP5 PUSH2 0x2EB4 JUMP JUMPDEST PUSH1 0x20 DUP3 ADD SWAP2 POP DUP2 SWAP1 POP SWAP7 SWAP6 POP POP POP POP POP POP JUMP JUMPDEST PUSH1 0x0 PUSH2 0x2F36 DUP3 DUP6 PUSH2 0x2B09 JUMP JUMPDEST SWAP2 POP PUSH2 0x2F42 DUP3 DUP5 PUSH2 0x2B09 JUMP JUMPDEST SWAP2 POP DUP2 SWAP1 POP SWAP4 SWAP3 POP POP POP JUMP JUMPDEST PUSH1 0x0 PUSH1 0x20 DUP3 ADD SWAP1 POP PUSH2 0x2F63 PUSH1 0x0 DUP4 ADD DUP5 PUSH2 0x2A53 JUMP JUMPDEST SWAP3 SWAP2 POP POP JUMP JUMPDEST PUSH1 0x0 PUSH1 0x80 DUP3 ADD SWAP1 POP PUSH2 0x2F7E PUSH1 0x0 DUP4 ADD DUP8 PUSH2 0x2A53 JUMP JUMPDEST PUSH2 0x2F8B PUSH1 0x20 DUP4 ADD DUP7 PUSH2 0x2A53 JUMP JUMPDEST PUSH2 0x2F98 PUSH1 0x40 DUP4 ADD DUP6 PUSH2 0x2EA5 JUMP JUMPDEST DUP2 DUP2 SUB PUSH1 0x60 DUP4 ADD MSTORE PUSH2 0x2FAA DUP2 DUP5 PUSH2 0x2A97 JUMP JUMPDEST SWAP1 POP SWAP6 SWAP5 POP POP POP POP POP JUMP JUMPDEST PUSH1 0x0 PUSH1 0x40 DUP3 ADD SWAP1 POP PUSH2 0x2FCA PUSH1 0x0 DUP4 ADD DUP6 PUSH2 0x2A53 JUMP JUMPDEST PUSH2 0x2FD7 PUSH1 0x20 DUP4 ADD DUP5 PUSH2 0x2A88 JUMP JUMPDEST SWAP4 SWAP3 POP POP POP JUMP JUMPDEST PUSH1 0x0 PUSH1 0xC0 DUP3 ADD SWAP1 POP PUSH2 0x2FF3 PUSH1 0x0 DUP4 ADD DUP10 PUSH2 0x2A53 JUMP JUMPDEST PUSH2 0x3000 PUSH1 0x20 DUP4 ADD DUP9 PUSH2 0x2EA5 JUMP JUMPDEST PUSH2 0x300D PUSH1 0x40 DUP4 ADD DUP8 PUSH2 0x2EA5 JUMP JUMPDEST PUSH2 0x301A PUSH1 0x60 DUP4 ADD DUP7 PUSH2 0x2EA5 JUMP JUMPDEST PUSH2 0x3027 PUSH1 0x80 DUP4 ADD DUP6 PUSH2 0x2A79 JUMP JUMPDEST PUSH2 0x3034 PUSH1 0xA0 DUP4 ADD DUP5 PUSH2 0x2EA5 JUMP JUMPDEST SWAP8 SWAP7 POP POP POP POP POP POP POP JUMP JUMPDEST PUSH1 0x0 PUSH1 0x20 DUP3 ADD SWAP1 POP PUSH2 0x3054 PUSH1 0x0 DUP4 ADD DUP5 PUSH2 0x2A79 JUMP JUMPDEST SWAP3 SWAP2 POP POP JUMP JUMPDEST PUSH1 0x0 PUSH1 0x60 DUP3 ADD SWAP1 POP PUSH2 0x306F PUSH1 0x0 DUP4 ADD DUP7 PUSH2 0x2A88 JUMP JUMPDEST PUSH2 0x307C PUSH1 0x20 DUP4 ADD DUP6 PUSH2 0x2EA5 JUMP JUMPDEST PUSH2 0x3089 PUSH1 0x40 DUP4 ADD DUP5 PUSH2 0x2EA5 JUMP JUMPDEST SWAP5 SWAP4 POP POP POP POP JUMP JUMPDEST PUSH1 0x0 PUSH1 0x20 DUP3 ADD SWAP1 POP DUP2 DUP2 SUB PUSH1 0x0 DUP4 ADD MSTORE PUSH2 0x30AB DUP2 DUP5 PUSH2 0x2AD0 JUMP JUMPDEST SWAP1 POP SWAP3 SWAP2 POP POP JUMP JUMPDEST PUSH1 0x0 PUSH1 0x20 DUP3 ADD SWAP1 POP DUP2 DUP2 SUB PUSH1 0x0 DUP4 ADD MSTORE PUSH2 0x30CC DUP2 PUSH2 0x2B3A JUMP JUMPDEST SWAP1 POP SWAP2 SWAP1 POP JUMP JUMPDEST PUSH1 0x0 PUSH1 0x20 DUP3 ADD SWAP1 POP DUP2 DUP2 SUB PUSH1 0x0 DUP4 ADD MSTORE PUSH2 0x30EC DUP2 PUSH2 0x2B5D JUMP JUMPDEST SWAP1 POP SWAP2 SWAP1 POP JUMP JUMPDEST PUSH1 0x0 PUSH1 0x20 DUP3 ADD SWAP1 POP DUP2 DUP2 SUB PUSH1 0x0 DUP4 ADD MSTORE PUSH2 0x310C DUP2 PUSH2 0x2B80 JUMP JUMPDEST SWAP1 POP SWAP2 SWAP1 POP JUMP JUMPDEST PUSH1 0x0 PUSH1 0x20 DUP3 ADD SWAP1 POP DUP2 DUP2 SUB PUSH1 0x0 DUP4 ADD MSTORE PUSH2 0x312C DUP2 PUSH2 0x2BA3 JUMP JUMPDEST SWAP1 POP SWAP2 SWAP1 POP JUMP JUMPDEST PUSH1 0x0 PUSH1 0x20 DUP3 ADD SWAP1 POP DUP2 DUP2 SUB PUSH1 0x0 DUP4 ADD MSTORE PUSH2 0x314C DUP2 PUSH2 0x2BC6 JUMP JUMPDEST SWAP1 POP SWAP2 SWAP1 POP JUMP JUMPDEST PUSH1 0x0 PUSH1 0x20 DUP3 ADD SWAP1 POP DUP2 DUP2 SUB PUSH1 0x0 DUP4 ADD MSTORE PUSH2 0x316C DUP2 PUSH2 0x2BE9 JUMP JUMPDEST SWAP1 POP SWAP2 SWAP1 POP JUMP JUMPDEST PUSH1 0x0 PUSH1 0x20 DUP3 ADD SWAP1 POP DUP2 DUP2 SUB PUSH1 0x0 DUP4 ADD MSTORE PUSH2 0x318C DUP2 PUSH2 0x2C0C JUMP JUMPDEST SWAP1 POP SWAP2 SWAP1 POP JUMP JUMPDEST PUSH1 0x0 PUSH1 0x20 DUP3 ADD SWAP1 POP DUP2 DUP2 SUB PUSH1 0x0 DUP4 ADD MSTORE PUSH2 0x31AC DUP2 PUSH2 0x2C2F JUMP JUMPDEST SWAP1 POP SWAP2 SWAP1 POP JUMP JUMPDEST PUSH1 0x0 PUSH1 0x20 DUP3 ADD SWAP1 POP DUP2 DUP2 SUB PUSH1 0x0 DUP4 ADD MSTORE PUSH2 0x31CC DUP2 PUSH2 0x2C52 JUMP JUMPDEST SWAP1 POP SWAP2 SWAP1 POP JUMP JUMPDEST PUSH1 0x0 PUSH1 0x20 DUP3 ADD SWAP1 POP DUP2 DUP2 SUB PUSH1 0x0 DUP4 ADD MSTORE PUSH2 0x31EC DUP2 PUSH2 0x2C75 JUMP JUMPDEST SWAP1 POP SWAP2 SWAP1 POP JUMP JUMPDEST PUSH1 0x0 PUSH1 0x20 DUP3 ADD SWAP1 POP DUP2 DUP2 SUB PUSH1 0x0 DUP4 ADD MSTORE PUSH2 0x320C DUP2 PUSH2 0x2C98 JUMP JUMPDEST SWAP1 POP SWAP2 SWAP1 POP JUMP JUMPDEST PUSH1 0x0 PUSH1 0x20 DUP3 ADD SWAP1 POP DUP2 DUP2 SUB PUSH1 0x0 DUP4 ADD MSTORE PUSH2 0x322C DUP2 PUSH2 0x2CBB JUMP JUMPDEST SWAP1 POP SWAP2 SWAP1 POP JUMP JUMPDEST PUSH1 0x0 PUSH1 0x20 DUP3 ADD SWAP1 POP DUP2 DUP2 SUB PUSH1 0x0 DUP4 ADD MSTORE PUSH2 0x324C DUP2 PUSH2 0x2CDE JUMP JUMPDEST SWAP1 POP SWAP2 SWAP1 POP JUMP JUMPDEST PUSH1 0x0 PUSH1 0x20 DUP3 ADD SWAP1 POP DUP2 DUP2 SUB PUSH1 0x0 DUP4 ADD MSTORE PUSH2 0x326C DUP2 PUSH2 0x2D01 JUMP JUMPDEST SWAP1 POP SWAP2 SWAP1 POP JUMP JUMPDEST PUSH1 0x0 PUSH1 0x20 DUP3 ADD SWAP1 POP DUP2 DUP2 SUB PUSH1 0x0 DUP4 ADD MSTORE PUSH2 0x328C DUP2 PUSH2 0x2D24 JUMP JUMPDEST SWAP1 POP SWAP2 SWAP1 POP JUMP JUMPDEST PUSH1 0x0 PUSH1 0x20 DUP3 ADD SWAP1 POP DUP2 DUP2 SUB PUSH1 0x0 DUP4 ADD MSTORE PUSH2 0x32AC DUP2 PUSH2 0x2D47 JUMP JUMPDEST SWAP1 POP SWAP2 SWAP1 POP JUMP JUMPDEST PUSH1 0x0 PUSH1 0x20 DUP3 ADD SWAP1 POP DUP2 DUP2 SUB PUSH1 0x0 DUP4 ADD MSTORE PUSH2 0x32CC DUP2 PUSH2 0x2D6A JUMP JUMPDEST SWAP1 POP SWAP2 SWAP1 POP JUMP JUMPDEST PUSH1 0x0 PUSH1 0x20 DUP3 ADD SWAP1 POP DUP2 DUP2 SUB PUSH1 0x0 DUP4 ADD MSTORE PUSH2 0x32EC DUP2 PUSH2 0x2D8D JUMP JUMPDEST SWAP1 POP SWAP2 SWAP1 POP JUMP JUMPDEST PUSH1 0x0 PUSH1 0x20 DUP3 ADD SWAP1 POP DUP2 DUP2 SUB PUSH1 0x0 DUP4 ADD MSTORE PUSH2 0x330C DUP2 PUSH2 0x2DB0 JUMP JUMPDEST SWAP1 POP SWAP2 SWAP1 POP JUMP JUMPDEST PUSH1 0x0 PUSH1 0x20 DUP3 ADD SWAP1 POP DUP2 DUP2 SUB PUSH1 0x0 DUP4 ADD MSTORE PUSH2 0x332C DUP2 PUSH2 0x2DD3 JUMP JUMPDEST SWAP1 POP SWAP2 SWAP1 POP JUMP JUMPDEST PUSH1 0x0 PUSH1 0x20 DUP3 ADD SWAP1 POP DUP2 DUP2 SUB PUSH1 0x0 DUP4 ADD MSTORE PUSH2 0x334C DUP2 PUSH2 0x2DF6 JUMP JUMPDEST SWAP1 POP SWAP2 SWAP1 POP JUMP JUMPDEST PUSH1 0x0 PUSH1 0x20 DUP3 ADD SWAP1 POP DUP2 DUP2 SUB PUSH1 0x0 DUP4 ADD MSTORE PUSH2 0x336C DUP2 PUSH2 0x2E19 JUMP JUMPDEST SWAP1 POP SWAP2 SWAP1 POP JUMP JUMPDEST PUSH1 0x0 PUSH1 0x20 DUP3 ADD SWAP1 POP DUP2 DUP2 SUB PUSH1 0x0 DUP4 ADD MSTORE PUSH2 0x338C DUP2 PUSH2 0x2E3C JUMP JUMPDEST SWAP1 POP SWAP2 SWAP1 POP JUMP JUMPDEST PUSH1 0x0 PUSH1 0x20 DUP3 ADD SWAP1 POP DUP2 DUP2 SUB PUSH1 0x0 DUP4 ADD MSTORE PUSH2 0x33AC DUP2 PUSH2 0x2E5F JUMP JUMPDEST SWAP1 POP SWAP2 SWAP1 POP JUMP JUMPDEST PUSH1 0x0 PUSH1 0x20 DUP3 ADD SWAP1 POP DUP2 DUP2 SUB PUSH1 0x0 DUP4 ADD MSTORE PUSH2 0x33CC DUP2 PUSH2 0x2E82 JUMP JUMPDEST SWAP1 POP SWAP2 SWAP1 POP JUMP JUMPDEST PUSH1 0x0 PUSH1 0x20 DUP3 ADD SWAP1 POP PUSH2 0x33E8 PUSH1 0x0 DUP4 ADD DUP5 PUSH2 0x2EA5 JUMP JUMPDEST SWAP3 SWAP2 POP POP JUMP JUMPDEST PUSH1 0x0 PUSH1 0x60 DUP3 ADD SWAP1 POP PUSH2 0x3403 PUSH1 0x0 DUP4 ADD DUP7 PUSH2 0x2EA5 JUMP JUMPDEST PUSH2 0x3410 PUSH1 0x20 DUP4 ADD DUP6 PUSH2 0x2A53 JUMP JUMPDEST PUSH2 0x341D PUSH1 0x40 DUP4 ADD DUP5 PUSH2 0x2A88 JUMP JUMPDEST SWAP5 SWAP4 POP POP POP POP JUMP JUMPDEST PUSH1 0x0 PUSH2 0x342F PUSH2 0x3440 JUMP JUMPDEST SWAP1 POP PUSH2 0x343B DUP3 DUP3 PUSH2 0x36C5 JUMP JUMPDEST SWAP2 SWAP1 POP JUMP JUMPDEST PUSH1 0x0 PUSH1 0x40 MLOAD SWAP1 POP SWAP1 JUMP JUMPDEST PUSH1 0x0 PUSH8 0xFFFFFFFFFFFFFFFF DUP3 GT ISZERO PUSH2 0x3465 JUMPI PUSH2 0x3464 PUSH2 0x385A JUMP JUMPDEST JUMPDEST PUSH2 0x346E DUP3 PUSH2 0x389D JUMP JUMPDEST SWAP1 POP PUSH1 0x20 DUP2 ADD SWAP1 POP SWAP2 SWAP1 POP JUMP JUMPDEST PUSH1 0x0 DUP2 MLOAD SWAP1 POP SWAP2 SWAP1 POP JUMP JUMPDEST PUSH1 0x0 DUP2 MLOAD SWAP1 POP SWAP2 SWAP1 POP JUMP JUMPDEST PUSH1 0x0 DUP3 DUP3 MSTORE PUSH1 0x20 DUP3 ADD SWAP1 POP SWAP3 SWAP2 POP POP JUMP JUMPDEST PUSH1 0x0 DUP3 DUP3 MSTORE PUSH1 0x20 DUP3 ADD SWAP1 POP SWAP3 SWAP2 POP POP JUMP JUMPDEST PUSH1 0x0 DUP2 SWAP1 POP SWAP3 SWAP2 POP POP JUMP JUMPDEST PUSH1 0x0 PUSH2 0x34C9 DUP3 PUSH2 0x3647 JUMP JUMPDEST SWAP2 POP PUSH2 0x34D4 DUP4 PUSH2 0x3647 JUMP JUMPDEST SWAP3 POP DUP3 PUSH32 0xFFFFFFFFFFFFFFFFFFFFFFFFFFFFFFFFFFFFFFFFFFFFFFFFFFFFFFFFFFFFFFFF SUB DUP3 GT ISZERO PUSH2 0x3509 JUMPI PUSH2 0x3508 PUSH2 0x379E JUMP JUMPDEST JUMPDEST DUP3 DUP3 ADD SWAP1 POP SWAP3 SWAP2 POP POP JUMP JUMPDEST PUSH1 0x0 PUSH2 0x351F DUP3 PUSH2 0x3647 JUMP JUMPDEST SWAP2 POP PUSH2 0x352A DUP4 PUSH2 0x3647 JUMP JUMPDEST SWAP3 POP DUP3 PUSH2 0x353A JUMPI PUSH2 0x3539 PUSH2 0x37CD JUMP JUMPDEST JUMPDEST DUP3 DUP3 DIV SWAP1 POP SWAP3 SWAP2 POP POP JUMP JUMPDEST PUSH1 0x0 PUSH2 0x3550 DUP3 PUSH2 0x3647 JUMP JUMPDEST SWAP2 POP PUSH2 0x355B DUP4 PUSH2 0x3647 JUMP JUMPDEST SWAP3 POP DUP2 PUSH32 0xFFFFFFFFFFFFFFFFFFFFFFFFFFFFFFFFFFFFFFFFFFFFFFFFFFFFFFFFFFFFFFFF DIV DUP4 GT DUP3 ISZERO ISZERO AND ISZERO PUSH2 0x3594 JUMPI PUSH2 0x3593 PUSH2 0x379E JUMP JUMPDEST JUMPDEST DUP3 DUP3 MUL SWAP1 POP SWAP3 SWAP2 POP POP JUMP JUMPDEST PUSH1 0x0 PUSH2 0x35AA DUP3 PUSH2 0x3647 JUMP JUMPDEST SWAP2 POP PUSH2 0x35B5 DUP4 PUSH2 0x3647 JUMP JUMPDEST SWAP3 POP DUP3 DUP3 LT ISZERO PUSH2 0x35C8 JUMPI PUSH2 0x35C7 PUSH2 0x379E JUMP JUMPDEST JUMPDEST DUP3 DUP3 SUB SWAP1 POP SWAP3 SWAP2 POP POP JUMP JUMPDEST PUSH1 0x0 PUSH2 0x35DE DUP3 PUSH2 0x3627 JUMP JUMPDEST SWAP1 POP SWAP2 SWAP1 POP JUMP JUMPDEST PUSH1 0x0 DUP2 ISZERO ISZERO SWAP1 POP SWAP2 SWAP1 POP JUMP JUMPDEST PUSH1 0x0 DUP2 SWAP1 POP SWAP2 SWAP1 POP JUMP JUMPDEST PUSH1 0x0 PUSH32 0xFFFFFFFF00000000000000000000000000000000000000000000000000000000 DUP3 AND SWAP1 POP SWAP2 SWAP1 POP JUMP JUMPDEST PUSH1 0x0 PUSH20 0xFFFFFFFFFFFFFFFFFFFFFFFFFFFFFFFFFFFFFFFF DUP3 AND SWAP1 POP SWAP2 SWAP1 POP JUMP JUMPDEST PUSH1 0x0 DUP2 SWAP1 POP SWAP2 SWAP1 POP JUMP JUMPDEST DUP3 DUP2 DUP4 CALLDATACOPY PUSH1 0x0 DUP4 DUP4 ADD MSTORE POP POP POP JUMP JUMPDEST PUSH1 0x0 JUMPDEST DUP4 DUP2 LT ISZERO PUSH2 0x367E JUMPI DUP1 DUP3 ADD MLOAD DUP2 DUP5 ADD MSTORE PUSH1 0x20 DUP2 ADD SWAP1 POP PUSH2 0x3663 JUMP JUMPDEST DUP4 DUP2 GT ISZERO PUSH2 0x368D JUMPI PUSH1 0x0 DUP5 DUP5 ADD MSTORE JUMPDEST POP POP POP POP JUMP JUMPDEST PUSH1 0x0 PUSH1 0x2 DUP3 DIV SWAP1 POP PUSH1 0x1 DUP3 AND DUP1 PUSH2 0x36AB JUMPI PUSH1 0x7F DUP3 AND SWAP2 POP JUMPDEST PUSH1 0x20 DUP3 LT DUP2 EQ ISZERO PUSH2 0x36BF JUMPI PUSH2 0x36BE PUSH2 0x37FC JUMP JUMPDEST JUMPDEST POP SWAP2 SWAP1 POP JUMP JUMPDEST PUSH2 0x36CE DUP3 PUSH2 0x389D JUMP JUMPDEST DUP2 ADD DUP2 DUP2 LT PUSH8 0xFFFFFFFFFFFFFFFF DUP3 GT OR ISZERO PUSH2 0x36ED JUMPI PUSH2 0x36EC PUSH2 0x385A JUMP JUMPDEST JUMPDEST DUP1 PUSH1 0x40 MSTORE POP POP POP JUMP JUMPDEST PUSH1 0x0 PUSH2 0x3701 DUP3 PUSH2 0x3647 JUMP JUMPDEST SWAP2 POP PUSH32 0xFFFFFFFFFFFFFFFFFFFFFFFFFFFFFFFFFFFFFFFFFFFFFFFFFFFFFFFFFFFFFFFF DUP3 EQ ISZERO PUSH2 0x3734 JUMPI PUSH2 0x3733 PUSH2 0x379E JUMP JUMPDEST JUMPDEST PUSH1 0x1 DUP3 ADD SWAP1 POP SWAP2 SWAP1 POP JUMP JUMPDEST PUSH1 0x0 PUSH2 0x374A DUP3 PUSH2 0x3751 JUMP JUMPDEST SWAP1 POP SWAP2 SWAP1 POP JUMP JUMPDEST PUSH1 0x0 PUSH2 0x375C DUP3 PUSH2 0x38AE JUMP JUMPDEST SWAP1 POP SWAP2 SWAP1 POP JUMP JUMPDEST PUSH1 0x0 DUP2 SWAP1 POP SWAP2 SWAP1 POP JUMP JUMPDEST PUSH1 0x0 PUSH2 0x3778 DUP3 PUSH2 0x3647 JUMP JUMPDEST SWAP2 POP PUSH2 0x3783 DUP4 PUSH2 0x3647 JUMP JUMPDEST SWAP3 POP DUP3 PUSH2 0x3793 JUMPI PUSH2 0x3792 PUSH2 0x37CD JUMP JUMPDEST JUMPDEST DUP3 DUP3 MOD SWAP1 POP SWAP3 SWAP2 POP POP JUMP JUMPDEST PUSH32 0x4E487B7100000000000000000000000000000000000000000000000000000000 PUSH1 0x0 MSTORE PUSH1 0x11 PUSH1 0x4 MSTORE PUSH1 0x24 PUSH1 0x0 REVERT JUMPDEST PUSH32 0x4E487B7100000000000000000000000000000000000000000000000000000000 PUSH1 0x0 MSTORE PUSH1 0x12 PUSH1 0x4 MSTORE PUSH1 0x24 PUSH1 0x0 REVERT JUMPDEST PUSH32 0x4E487B7100000000000000000000000000000000000000000000000000000000 PUSH1 0x0 MSTORE PUSH1 0x22 PUSH1 0x4 MSTORE PUSH1 0x24 PUSH1 0x0 REVERT JUMPDEST PUSH32 0x4E487B7100000000000000000000000000000000000000000000000000000000 PUSH1 0x0 MSTORE PUSH1 0x32 PUSH1 0x4 MSTORE PUSH1 0x24 PUSH1 0x0 REVERT JUMPDEST PUSH32 0x4E487B7100000000000000000000000000000000000000000000000000000000 PUSH1 0x0 MSTORE PUSH1 0x41 PUSH1 0x4 MSTORE PUSH1 0x24 PUSH1 0x0 REVERT JUMPDEST PUSH1 0x0 DUP1 REVERT JUMPDEST PUSH1 0x0 DUP1 REVERT JUMPDEST PUSH1 0x0 DUP1 REVERT JUMPDEST PUSH1 0x0 DUP1 REVERT JUMPDEST PUSH1 0x0 PUSH1 0x1F NOT PUSH1 0x1F DUP4 ADD AND SWAP1 POP SWAP2 SWAP1 POP JUMP JUMPDEST PUSH1 0x0 DUP2 PUSH1 0x60 SHL SWAP1 POP SWAP2 SWAP1 POP JUMP JUMPDEST PUSH32 0x426574206D75737420626520636F6D706C657465000000000000000000000000 PUSH1 0x0 DUP3 ADD MSTORE POP JUMP JUMPDEST PUSH32 0x4552433732313A207472616E7366657220746F206E6F6E204552433732315265 PUSH1 0x0 DUP3 ADD MSTORE PUSH32 0x63656976657220696D706C656D656E7465720000000000000000000000000000 PUSH1 0x20 DUP3 ADD MSTORE POP JUMP JUMPDEST PUSH32 0x57696E6E6572206D7573742062652077697468696E206F7074696F6E73000000 PUSH1 0x0 DUP3 ADD MSTORE POP JUMP JUMPDEST PUSH32 0x4552433732313A20746F6B656E20616C7265616479206D696E74656400000000 PUSH1 0x0 DUP3 ADD MSTORE POP JUMP JUMPDEST PUSH32 0x626F6F6B20616C7265616479206578697374732061742074686973206B65792C PUSH1 0x0 DUP3 ADD MSTORE PUSH32 0x20796F75277265206C696B656C7920747279696E6720746F2063726561746520 PUSH1 0x20 DUP3 ADD MSTORE PUSH32 0x6D756C7469706C65206F66207468652073616D6520626F6F6B7320696E206F6E PUSH1 0x40 DUP3 ADD MSTORE PUSH32 0x652074782E20446F6E277420646F20746869732E000000000000000000000000 PUSH1 0x60 DUP3 ADD MSTORE POP JUMP JUMPDEST PUSH32 0x4552433732313A207472616E7366657220746F20746865207A65726F20616464 PUSH1 0x0 DUP3 ADD MSTORE PUSH32 0x7265737300000000000000000000000000000000000000000000000000000000 PUSH1 0x20 DUP3 ADD MSTORE POP JUMP JUMPDEST PUSH32 0x4552433732313A20617070726F766520746F2063616C6C657200000000000000 PUSH1 0x0 DUP3 ADD MSTORE POP JUMP JUMPDEST PUSH32 0x6F7074696F6E206D7573742062652077697468696E206F7074696F6E7320696E PUSH1 0x0 DUP3 ADD MSTORE PUSH32 0x20626F6F6B000000000000000000000000000000000000000000000000000000 PUSH1 0x20 DUP3 ADD MSTORE POP JUMP JUMPDEST PUSH32 0x4D757374206861766520626574206F6E207468652077696E6E65720000000000 PUSH1 0x0 DUP3 ADD MSTORE POP JUMP JUMPDEST PUSH32 0x4552433732313A206F70657261746F7220717565727920666F72206E6F6E6578 PUSH1 0x0 DUP3 ADD MSTORE PUSH32 0x697374656E7420746F6B656E0000000000000000000000000000000000000000 PUSH1 0x20 DUP3 ADD MSTORE POP JUMP JUMPDEST PUSH32 0x526564756374696F6E20726174652063616E6E6F74206265206D6F7265207468 PUSH1 0x0 DUP3 ADD MSTORE PUSH32 0x616E203130302500000000000000000000000000000000000000000000000000 PUSH1 0x20 DUP3 ADD MSTORE POP JUMP JUMPDEST PUSH32 0x4552433732313A20617070726F76652063616C6C6572206973206E6F74206F77 PUSH1 0x0 DUP3 ADD MSTORE PUSH32 0x6E6572206E6F7220617070726F76656420666F7220616C6C0000000000000000 PUSH1 0x20 DUP3 ADD MSTORE POP JUMP JUMPDEST PUSH32 0x4552433732313A2062616C616E636520717565727920666F7220746865207A65 PUSH1 0x0 DUP3 ADD MSTORE PUSH32 0x726F206164647265737300000000000000000000000000000000000000000000 PUSH1 0x20 DUP3 ADD MSTORE POP JUMP JUMPDEST PUSH32 0x4552433732313A206F776E657220717565727920666F72206E6F6E6578697374 PUSH1 0x0 DUP3 ADD MSTORE PUSH32 0x656E7420746F6B656E0000000000000000000000000000000000000000000000 PUSH1 0x20 DUP3 ADD MSTORE POP JUMP JUMPDEST PUSH32 0x4552433732313A206D696E7420746F20746865207A65726F2061646472657373 PUSH1 0x0 DUP3 ADD MSTORE POP JUMP JUMPDEST PUSH32 0x4552433732313A20617070726F76656420717565727920666F72206E6F6E6578 PUSH1 0x0 DUP3 ADD MSTORE PUSH32 0x697374656E7420746F6B656E0000000000000000000000000000000000000000 PUSH1 0x20 DUP3 ADD MSTORE POP JUMP JUMPDEST PUSH32 0x4F6E6C792074686520626F6F6B69652063616E20736574746C65207468652062 PUSH1 0x0 DUP3 ADD MSTORE PUSH32 0x6574000000000000000000000000000000000000000000000000000000000000 PUSH1 0x20 DUP3 ADD MSTORE POP JUMP JUMPDEST PUSH32 0x4552433732313A207472616E73666572206F6620746F6B656E20746861742069 PUSH1 0x0 DUP3 ADD MSTORE PUSH32 0x73206E6F74206F776E0000000000000000000000000000000000000000000000 PUSH1 0x20 DUP3 ADD MSTORE POP JUMP JUMPDEST PUSH32 0x4552433732314D657461646174613A2055524920717565727920666F72206E6F PUSH1 0x0 DUP3 ADD MSTORE PUSH32 0x6E6578697374656E7420746F6B656E0000000000000000000000000000000000 PUSH1 0x20 DUP3 ADD MSTORE POP JUMP JUMPDEST PUSH32 0x4F6E6C792074686520626F6F6B69652063616E2070726F766964652074686520 PUSH1 0x0 DUP3 ADD MSTORE PUSH32 0x626F6F6B732066756E64696E6700000000000000000000000000000000000000 PUSH1 0x20 DUP3 ADD MSTORE POP JUMP JUMPDEST PUSH32 0x4552433732313A20617070726F76616C20746F2063757272656E74206F776E65 PUSH1 0x0 DUP3 ADD MSTORE PUSH32 0x7200000000000000000000000000000000000000000000000000000000000000 PUSH1 0x20 DUP3 ADD MSTORE POP JUMP JUMPDEST PUSH32 0x4D7573742068617665206D6F7265207468616E2031206F7074696F6E20746F20 PUSH1 0x0 DUP3 ADD MSTORE PUSH32 0x626574206F6E0000000000000000000000000000000000000000000000000000 PUSH1 0x20 DUP3 ADD MSTORE POP JUMP JUMPDEST PUSH32 0x4552433732313A207472616E736665722063616C6C6572206973206E6F74206F PUSH1 0x0 DUP3 ADD MSTORE PUSH32 0x776E6572206E6F7220617070726F766564000000000000000000000000000000 PUSH1 0x20 DUP3 ADD MSTORE POP JUMP JUMPDEST PUSH32 0x4D7573742073656E6420656E6F7567682077656920746F2066756E6420656163 PUSH1 0x0 DUP3 ADD MSTORE PUSH32 0x68206F7074696F6E000000000000000000000000000000000000000000000000 PUSH1 0x20 DUP3 ADD MSTORE POP JUMP JUMPDEST PUSH32 0x626574206D7573742062652077697468696E206F7074696F6E73000000000000 PUSH1 0x0 DUP3 ADD MSTORE POP JUMP JUMPDEST PUSH2 0x3FBD DUP2 PUSH2 0x35D3 JUMP JUMPDEST DUP2 EQ PUSH2 0x3FC8 JUMPI PUSH1 0x0 DUP1 REVERT JUMPDEST POP JUMP JUMPDEST PUSH2 0x3FD4 DUP2 PUSH2 0x35E5 JUMP JUMPDEST DUP2 EQ PUSH2 0x3FDF JUMPI PUSH1 0x0 DUP1 REVERT JUMPDEST POP JUMP JUMPDEST PUSH2 0x3FEB DUP2 PUSH2 0x35F1 JUMP JUMPDEST DUP2 EQ PUSH2 0x3FF6 JUMPI PUSH1 0x0 DUP1 REVERT JUMPDEST POP JUMP JUMPDEST PUSH2 0x4002 DUP2 PUSH2 0x35FB JUMP JUMPDEST DUP2 EQ PUSH2 0x400D JUMPI PUSH1 0x0 DUP1 REVERT JUMPDEST POP JUMP JUMPDEST PUSH2 0x4019 DUP2 PUSH2 0x3647 JUMP JUMPDEST DUP2 EQ PUSH2 0x4024 JUMPI PUSH1 0x0 DUP1 REVERT JUMPDEST POP JUMP INVALID LOG2 PUSH5 0x6970667358 0x22 SLT KECCAK256 ORIGIN SWAP4 SLOAD CALLVALUE 0xDF 0xDC DUP1 PUSH20 0xFB327FF5F8925389185D149811F1DF81FCF9561A PUSH4 0x1C849064 PUSH20 0x6F6C634300080700330000000000000000000000 "
		},
		"gasEstimates": {
			"creation": {
				"codeDepositCost": "3295400",
				"executionCost": "infinite",
				"totalCost": "infinite"
			},
			"external": {
				"_newBook(address,uint256,uint256)": "infinite",
				"approve(address,uint256)": "infinite",
				"balanceOf(address)": "2924",
				"betTicketFromNFT(uint256)": "infinite",
				"books(bytes32)": "infinite",
				"callBet(bytes32,uint256)": "infinite",
				"fundBet(bytes32)": "infinite",
				"getApproved(uint256)": "5228",
				"getOdds(bytes32,uint256,uint256)": "infinite",
				"isApprovedForAll(address,address)": "infinite",
				"name()": "infinite",
				"oneHundredPercent()": "440",
				"ownerOf(uint256)": "3000",
				"placeBet(bytes32,uint256)": "infinite",
				"safeTransferFrom(address,address,uint256)": "infinite",
				"safeTransferFrom(address,address,uint256,bytes)": "infinite",
				"setApprovalForAll(address,bool)": "infinite",
				"settleBet(uint256)": "infinite",
				"supportsInterface(bytes4)": "797",
				"symbol()": "infinite",
				"tokenURI(uint256)": "3417",
				"transferFrom(address,address,uint256)": "infinite"
			},
			"internal": {
				"_issueBet(address,bytes32,uint256,uint256)": "infinite"
			}
		},
		"methodIdentifiers": {
			"_newBook(address,uint256,uint256)": "2451d316",
			"approve(address,uint256)": "095ea7b3",
			"balanceOf(address)": "70a08231",
			"betTicketFromNFT(uint256)": "7bab25d1",
			"books(bytes32)": "0c0dee70",
			"callBet(bytes32,uint256)": "726e0320",
			"fundBet(bytes32)": "154048ab",
			"getApproved(uint256)": "081812fc",
			"getOdds(bytes32,uint256,uint256)": "81007391",
			"isApprovedForAll(address,address)": "e985e9c5",
			"name()": "06fdde03",
			"oneHundredPercent()": "34913f28",
			"ownerOf(uint256)": "6352211e",
			"placeBet(bytes32,uint256)": "f3118d8e",
			"safeTransferFrom(address,address,uint256)": "42842e0e",
			"safeTransferFrom(address,address,uint256,bytes)": "b88d4fde",
			"setApprovalForAll(address,bool)": "a22cb465",
			"settleBet(uint256)": "16fd381a",
			"supportsInterface(bytes4)": "01ffc9a7",
			"symbol()": "95d89b41",
			"tokenURI(uint256)": "c87b56dd",
			"transferFrom(address,address,uint256)": "23b872dd"
		}
	},
	"abi": [
		{
			"inputs": [],
			"stateMutability": "nonpayable",
			"type": "constructor"
		},
		{
			"anonymous": false,
			"inputs": [
				{
					"indexed": true,
					"internalType": "address",
					"name": "owner",
					"type": "address"
				},
				{
					"indexed": true,
					"internalType": "address",
					"name": "approved",
					"type": "address"
				},
				{
					"indexed": true,
					"internalType": "uint256",
					"name": "tokenId",
					"type": "uint256"
				}
			],
			"name": "Approval",
			"type": "event"
		},
		{
			"anonymous": false,
			"inputs": [
				{
					"indexed": true,
					"internalType": "address",
					"name": "owner",
					"type": "address"
				},
				{
					"indexed": true,
					"internalType": "address",
					"name": "operator",
					"type": "address"
				},
				{
					"indexed": false,
					"internalType": "bool",
					"name": "approved",
					"type": "bool"
				}
			],
			"name": "ApprovalForAll",
			"type": "event"
		},
		{
			"anonymous": false,
			"inputs": [
				{
					"indexed": false,
					"internalType": "uint256",
					"name": "",
					"type": "uint256"
				},
				{
					"indexed": false,
					"internalType": "address",
					"name": "",
					"type": "address"
				},
				{
					"indexed": false,
					"internalType": "bytes32",
					"name": "",
					"type": "bytes32"
				}
			],
			"name": "NewBet",
			"type": "event"
		},
		{
			"anonymous": false,
			"inputs": [
				{
					"indexed": false,
					"internalType": "address",
					"name": "",
					"type": "address"
				},
				{
					"indexed": false,
					"internalType": "bytes32",
					"name": "",
					"type": "bytes32"
				}
			],
			"name": "NewBook",
			"type": "event"
		},
		{
			"anonymous": false,
			"inputs": [
				{
					"indexed": true,
					"internalType": "address",
					"name": "from",
					"type": "address"
				},
				{
					"indexed": true,
					"internalType": "address",
					"name": "to",
					"type": "address"
				},
				{
					"indexed": true,
					"internalType": "uint256",
					"name": "tokenId",
					"type": "uint256"
				}
			],
			"name": "Transfer",
			"type": "event"
		},
		{
			"inputs": [
				{
					"internalType": "address",
					"name": "_bookie",
					"type": "address"
				},
				{
					"internalType": "uint256",
					"name": "_numOptions",
					"type": "uint256"
				},
				{
					"internalType": "uint256",
					"name": "reductionRate",
					"type": "uint256"
				}
			],
			"name": "_newBook",
			"outputs": [],
			"stateMutability": "nonpayable",
			"type": "function"
		},
		{
			"inputs": [
				{
					"internalType": "address",
					"name": "to",
					"type": "address"
				},
				{
					"internalType": "uint256",
					"name": "tokenId",
					"type": "uint256"
				}
			],
			"name": "approve",
			"outputs": [],
			"stateMutability": "nonpayable",
			"type": "function"
		},
		{
			"inputs": [
				{
					"internalType": "address",
					"name": "owner",
					"type": "address"
				}
			],
			"name": "balanceOf",
			"outputs": [
				{
					"internalType": "uint256",
					"name": "",
					"type": "uint256"
				}
			],
			"stateMutability": "view",
			"type": "function"
		},
		{
			"inputs": [
				{
					"internalType": "uint256",
					"name": "",
					"type": "uint256"
				}
			],
			"name": "betTicketFromNFT",
			"outputs": [
				{
					"internalType": "bytes32",
					"name": "book",
					"type": "bytes32"
				},
				{
					"internalType": "uint256",
					"name": "option",
					"type": "uint256"
				},
				{
					"internalType": "uint256",
					"name": "payout",
					"type": "uint256"
				}
			],
			"stateMutability": "view",
			"type": "function"
		},
		{
			"inputs": [
				{
					"internalType": "bytes32",
					"name": "",
					"type": "bytes32"
				}
			],
			"name": "books",
			"outputs": [
				{
					"internalType": "address",
					"name": "bookie",
					"type": "address"
				},
				{
					"internalType": "uint256",
					"name": "reductionRate",
					"type": "uint256"
				},
				{
					"internalType": "uint256",
					"name": "optionsCount",
					"type": "uint256"
				},
				{
					"internalType": "uint256",
					"name": "totalBets",
					"type": "uint256"
				},
				{
					"internalType": "bool",
					"name": "complete",
					"type": "bool"
				},
				{
					"internalType": "uint256",
					"name": "winner",
					"type": "uint256"
				}
			],
			"stateMutability": "view",
			"type": "function"
		},
		{
			"inputs": [
				{
					"internalType": "bytes32",
					"name": "_book",
					"type": "bytes32"
				},
				{
					"internalType": "uint256",
					"name": "_winner",
					"type": "uint256"
				}
			],
			"name": "callBet",
			"outputs": [],
			"stateMutability": "nonpayable",
			"type": "function"
		},
		{
			"inputs": [
				{
					"internalType": "bytes32",
					"name": "_book",
					"type": "bytes32"
				}
			],
			"name": "fundBet",
			"outputs": [],
			"stateMutability": "payable",
			"type": "function"
		},
		{
			"inputs": [
				{
					"internalType": "uint256",
					"name": "tokenId",
					"type": "uint256"
				}
			],
			"name": "getApproved",
			"outputs": [
				{
					"internalType": "address",
					"name": "",
					"type": "address"
				}
			],
			"stateMutability": "view",
			"type": "function"
		},
		{
			"inputs": [
				{
					"internalType": "bytes32",
					"name": "_book",
					"type": "bytes32"
				},
				{
					"internalType": "uint256",
					"name": "_option",
					"type": "uint256"
				},
				{
					"internalType": "uint256",
					"name": "_amount",
					"type": "uint256"
				}
			],
			"name": "getOdds",
			"outputs": [
				{
					"internalType": "uint256",
					"name": "",
					"type": "uint256"
				}
			],
			"stateMutability": "view",
			"type": "function"
		},
		{
			"inputs": [
				{
					"internalType": "address",
					"name": "owner",
					"type": "address"
				},
				{
					"internalType": "address",
					"name": "operator",
					"type": "address"
				}
			],
			"name": "isApprovedForAll",
			"outputs": [
				{
					"internalType": "bool",
					"name": "",
					"type": "bool"
				}
			],
			"stateMutability": "view",
			"type": "function"
		},
		{
			"inputs": [],
			"name": "name",
			"outputs": [
				{
					"internalType": "string",
					"name": "",
					"type": "string"
				}
			],
			"stateMutability": "view",
			"type": "function"
		},
		{
			"inputs": [],
			"name": "oneHundredPercent",
			"outputs": [
				{
					"internalType": "uint256",
					"name": "",
					"type": "uint256"
				}
			],
			"stateMutability": "view",
			"type": "function"
		},
		{
			"inputs": [
				{
					"internalType": "uint256",
					"name": "tokenId",
					"type": "uint256"
				}
			],
			"name": "ownerOf",
			"outputs": [
				{
					"internalType": "address",
					"name": "",
					"type": "address"
				}
			],
			"stateMutability": "view",
			"type": "function"
		},
		{
			"inputs": [
				{
					"internalType": "bytes32",
					"name": "_book",
					"type": "bytes32"
				},
				{
					"internalType": "uint256",
					"name": "_option",
					"type": "uint256"
				}
			],
			"name": "placeBet",
			"outputs": [],
			"stateMutability": "payable",
			"type": "function"
		},
		{
			"inputs": [
				{
					"internalType": "address",
					"name": "from",
					"type": "address"
				},
				{
					"internalType": "address",
					"name": "to",
					"type": "address"
				},
				{
					"internalType": "uint256",
					"name": "tokenId",
					"type": "uint256"
				}
			],
			"name": "safeTransferFrom",
			"outputs": [],
			"stateMutability": "nonpayable",
			"type": "function"
		},
		{
			"inputs": [
				{
					"internalType": "address",
					"name": "from",
					"type": "address"
				},
				{
					"internalType": "address",
					"name": "to",
					"type": "address"
				},
				{
					"internalType": "uint256",
					"name": "tokenId",
					"type": "uint256"
				},
				{
					"internalType": "bytes",
					"name": "_data",
					"type": "bytes"
				}
			],
			"name": "safeTransferFrom",
			"outputs": [],
			"stateMutability": "nonpayable",
			"type": "function"
		},
		{
			"inputs": [
				{
					"internalType": "address",
					"name": "operator",
					"type": "address"
				},
				{
					"internalType": "bool",
					"name": "approved",
					"type": "bool"
				}
			],
			"name": "setApprovalForAll",
			"outputs": [],
			"stateMutability": "nonpayable",
			"type": "function"
		},
		{
			"inputs": [
				{
					"internalType": "uint256",
					"name": "ticket",
					"type": "uint256"
				}
			],
			"name": "settleBet",
			"outputs": [],
			"stateMutability": "nonpayable",
			"type": "function"
		},
		{
			"inputs": [
				{
					"internalType": "bytes4",
					"name": "interfaceId",
					"type": "bytes4"
				}
			],
			"name": "supportsInterface",
			"outputs": [
				{
					"internalType": "bool",
					"name": "",
					"type": "bool"
				}
			],
			"stateMutability": "view",
			"type": "function"
		},
		{
			"inputs": [],
			"name": "symbol",
			"outputs": [
				{
					"internalType": "string",
					"name": "",
					"type": "string"
				}
			],
			"stateMutability": "view",
			"type": "function"
		},
		{
			"inputs": [
				{
					"internalType": "uint256",
					"name": "tokenId",
					"type": "uint256"
				}
			],
			"name": "tokenURI",
			"outputs": [
				{
					"internalType": "string",
					"name": "",
					"type": "string"
				}
			],
			"stateMutability": "view",
			"type": "function"
		},
		{
			"inputs": [
				{
					"internalType": "address",
					"name": "from",
					"type": "address"
				},
				{
					"internalType": "address",
					"name": "to",
					"type": "address"
				},
				{
					"internalType": "uint256",
					"name": "tokenId",
					"type": "uint256"
				}
			],
			"name": "transferFrom",
			"outputs": [],
			"stateMutability": "nonpayable",
			"type": "function"
		}
	]
}